{"abi":[{"type":"function","name":"DOMAIN_SEPARATOR","inputs":[],"outputs":[{"name":"","type":"bytes32","internalType":"bytes32"}],"stateMutability":"view"},{"type":"function","name":"invalidateUnorderedNonces","inputs":[{"name":"wordPos","type":"uint256","internalType":"uint256"},{"name":"mask","type":"uint256","internalType":"uint256"}],"outputs":[],"stateMutability":"nonpayable"},{"type":"function","name":"nonceBitmap","inputs":[{"name":"","type":"address","internalType":"address"},{"name":"","type":"uint256","internalType":"uint256"}],"outputs":[{"name":"","type":"uint256","internalType":"uint256"}],"stateMutability":"view"},{"type":"function","name":"permitTransferFrom","inputs":[{"name":"permit","type":"tuple","internalType":"struct ISignatureTransfer.PermitTransferFrom","components":[{"name":"permitted","type":"tuple","internalType":"struct ISignatureTransfer.TokenPermissions","components":[{"name":"token","type":"address","internalType":"address"},{"name":"amount","type":"uint256","internalType":"uint256"}]},{"name":"nonce","type":"uint256","internalType":"uint256"},{"name":"deadline","type":"uint256","internalType":"uint256"}]},{"name":"transferDetails","type":"tuple","internalType":"struct ISignatureTransfer.SignatureTransferDetails","components":[{"name":"to","type":"address","internalType":"address"},{"name":"requestedAmount","type":"uint256","internalType":"uint256"}]},{"name":"owner","type":"address","internalType":"address"},{"name":"signature","type":"bytes","internalType":"bytes"}],"outputs":[],"stateMutability":"nonpayable"},{"type":"function","name":"permitTransferFrom","inputs":[{"name":"permit","type":"tuple","internalType":"struct ISignatureTransfer.PermitBatchTransferFrom","components":[{"name":"permitted","type":"tuple[]","internalType":"struct ISignatureTransfer.TokenPermissions[]","components":[{"name":"token","type":"address","internalType":"address"},{"name":"amount","type":"uint256","internalType":"uint256"}]},{"name":"nonce","type":"uint256","internalType":"uint256"},{"name":"deadline","type":"uint256","internalType":"uint256"}]},{"name":"transferDetails","type":"tuple[]","internalType":"struct ISignatureTransfer.SignatureTransferDetails[]","components":[{"name":"to","type":"address","internalType":"address"},{"name":"requestedAmount","type":"uint256","internalType":"uint256"}]},{"name":"owner","type":"address","internalType":"address"},{"name":"signature","type":"bytes","internalType":"bytes"}],"outputs":[],"stateMutability":"nonpayable"},{"type":"function","name":"permitWitnessTransferFrom","inputs":[{"name":"permit","type":"tuple","internalType":"struct ISignatureTransfer.PermitTransferFrom","components":[{"name":"permitted","type":"tuple","internalType":"struct ISignatureTransfer.TokenPermissions","components":[{"name":"token","type":"address","internalType":"address"},{"name":"amount","type":"uint256","internalType":"uint256"}]},{"name":"nonce","type":"uint256","internalType":"uint256"},{"name":"deadline","type":"uint256","internalType":"uint256"}]},{"name":"transferDetails","type":"tuple","internalType":"struct ISignatureTransfer.SignatureTransferDetails","components":[{"name":"to","type":"address","internalType":"address"},{"name":"requestedAmount","type":"uint256","internalType":"uint256"}]},{"name":"owner","type":"address","internalType":"address"},{"name":"witness","type":"bytes32","internalType":"bytes32"},{"name":"witnessTypeString","type":"string","internalType":"string"},{"name":"signature","type":"bytes","internalType":"bytes"}],"outputs":[],"stateMutability":"nonpayable"},{"type":"function","name":"permitWitnessTransferFrom","inputs":[{"name":"permit","type":"tuple","internalType":"struct ISignatureTransfer.PermitBatchTransferFrom","components":[{"name":"permitted","type":"tuple[]","internalType":"struct ISignatureTransfer.TokenPermissions[]","components":[{"name":"token","type":"address","internalType":"address"},{"name":"amount","type":"uint256","internalType":"uint256"}]},{"name":"nonce","type":"uint256","internalType":"uint256"},{"name":"deadline","type":"uint256","internalType":"uint256"}]},{"name":"transferDetails","type":"tuple[]","internalType":"struct ISignatureTransfer.SignatureTransferDetails[]","components":[{"name":"to","type":"address","internalType":"address"},{"name":"requestedAmount","type":"uint256","internalType":"uint256"}]},{"name":"owner","type":"address","internalType":"address"},{"name":"witness","type":"bytes32","internalType":"bytes32"},{"name":"witnessTypeString","type":"string","internalType":"string"},{"name":"signature","type":"bytes","internalType":"bytes"}],"outputs":[],"stateMutability":"nonpayable"},{"type":"event","name":"UnorderedNonceInvalidation","inputs":[{"name":"owner","type":"address","indexed":true,"internalType":"address"},{"name":"word","type":"uint256","indexed":false,"internalType":"uint256"},{"name":"mask","type":"uint256","indexed":false,"internalType":"uint256"}],"anonymous":false},{"type":"error","name":"InvalidAmount","inputs":[{"name":"maxAmount","type":"uint256","internalType":"uint256"}]},{"type":"error","name":"InvalidContractSignature","inputs":[]},{"type":"error","name":"InvalidNonce","inputs":[]},{"type":"error","name":"InvalidSignature","inputs":[]},{"type":"error","name":"InvalidSignatureLength","inputs":[]},{"type":"error","name":"InvalidSigner","inputs":[]},{"type":"error","name":"LengthMismatch","inputs":[]},{"type":"error","name":"SignatureExpired","inputs":[{"name":"signatureDeadline","type":"uint256","internalType":"uint256"}]}],"bytecode":{"object":"0x60c03460b7574660a052602081017f8cad95687ba82c2ce50e74f7b754645e5117c3a5bec8151c0726d5857980a86681527f9ac997416e8ff9d2ff6bebeb7149f65cdae5e32e2b90440b566bb3044041d36a60408301524660608301523060808301526080825260a082019180831060018060401b0384111760a35782604052519020608052610f1390816100bc823960805181610932015260a0518161090c0152f35b634e487b7160e01b5f52604160045260245ffd5b5f80fdfe60806040526004361015610011575f80fd5b5f3560e01c8063137c29fe1461055d57806330f28b7a146104935780633644e515146104715780633ff9dcb11461040c5780634fe02b44146103c5578063edd9444b146102915763fe8ec1a714610066575f80fd5b3461028d5760c036600319011261028d576004356001600160401b03811161028d5761009690369060040161082e565b6024356001600160401b03811161028d576100b59036906004016108d9565b90916100bf610751565b906084356001600160401b03811161028d576100df9036906004016107ea565b92909360a4356001600160401b03811161028d576101019036906004016107ea565b9590946101d06040519261011660a08561071a565b606b8452602083818601927f5065726d697442617463685769746e6573735472616e7366657246726f6d285484527f6f6b656e5065726d697373696f6e735b5d207065726d69747465642c6164647260408801527f657373207370656e6465722c75696e74323536206e6f6e63652c75696e74323560608801526a0d88191958591b1a5b994b60aa1b6080880152604051958694848601985180918a5e8501918483015f81523701015f815203601f19810183528261071a565b51902095835151966101e188610a55565b975f5b8181106102655750506102639760405161021481610206602082018095610aaf565b03601f19810183528261071a565b519020602086810151604080890151815193840195865290830193909352336060830152608082015260a081019190915260643560c082015261025a8160e08101610206565b51902093610aec565b005b8061027c6102766001938a51610a87565b51610bb6565b610286828d610a87565b52016101e4565b5f80fd5b3461028d57608036600319011261028d576004356001600160401b03811161028d576102c190369060040161082e565b6024356001600160401b03811161028d576102e09036906004016108d9565b6102eb929192610751565b916064356001600160401b03811161028d5761030b9036906004016107ea565b9390928251519561031b87610a55565b5f5b8881106103a35750610263975060405161033f81610206602082018095610aaf565b519020602085015160408601516040519160208301937ffcf35f5ac6a2c28868dc44c302166470266239195f02b0ee408334829333b76685526040840152336060840152608083015260a082015261025a60c082800301601f19810183528261071a565b806103b46102766001938951610a87565b6103be8285610a87565b520161031d565b3461028d57604036600319011261028d576004356001600160a01b0381169081900361028d575f525f60205260405f206024355f52602052602060405f2054604051908152f35b3461028d57604036600319011261028d57600435602435335f525f60205260405f20825f5260205260405f2081815417905560405191825260208201527f3704902f963766a4e561bbaab6e6cdc1b1dd12f6e9e99648da8843b3f46b918d60403392a2005b3461028d575f36600319011261028d57602061048b610909565b604051908152f35b3461028d5761010036600319011261028d576104ae366107b1565b604036608319011261028d576104c261073b565b9060e435916001600160401b03831161028d576104e66102639336906004016107ea565b9290916104f38251610bb6565b602083015160408401516040519160208301937f939c21a48a8dbe3a9a2404a1d46691e4d39f6583d6ec6b35714604c986d8010685526040840152336060840152608083015260a082015261055460c082800301601f19810183528261071a565b519020916109c6565b3461028d5761014036600319011261028d57610578366107b1565b604036608319011261028d5761058c61073b565b90610104356001600160401b03811161028d576105ad9036906004016107ea565b909161012435936001600160401b03851161028d576105d36102639536906004016107ea565b94909361069b604051926105e860a08561071a565b60648452602083818601927f5065726d69745769746e6573735472616e7366657246726f6d28546f6b656e5084527f65726d697373696f6e73207065726d69747465642c616464726573732073706560408801527f6e6465722c75696e74323536206e6f6e63652c75696e7432353620646561646c6060880152631a5b994b60e21b6080880152604051958694848601985180918a5e8501918483015f81523701015f815203601f19810183528261071a565b5190206106a88351610bb6565b602084810151604080870151815193840195865290830193909352336060830152608082015260a081019190915260e43560c08201526105548160e08101610206565b606081019081106001600160401b0382111761070657604052565b634e487b7160e01b5f52604160045260245ffd5b90601f801991011681019081106001600160401b0382111761070657604052565b60c435906001600160a01b038216820361028d57565b604435906001600160a01b038216820361028d57565b919082604091031261028d57604051604081018181106001600160401b038211176107065760405291829080356001600160a01b038116810361028d578252602090810135910152565b90608060031983011261028d576040516107ca816106eb565b6107d681936004610767565b815260443560208201526040606435910152565b9181601f8401121561028d578235916001600160401b03831161028d576020838186019501011161028d57565b6001600160401b0381116107065760051b60200190565b91909160608184031261028d5760405190610848826106eb565b819381356001600160401b03811161028d57820181601f8201121561028d57803561087281610817565b92610880604051948561071a565b81845260208085019260061b8401019281841161028d57602001915b8383106108bf575050505060409182918452602081013560208501520135910152565b60206040916108ce8486610767565b81520192019161089c565b9181601f8401121561028d578235916001600160401b03831161028d576020808501948460061b01011161028d57565b467f000000000000000000000000000000000000000000000000000000000000000003610954577f000000000000000000000000000000000000000000000000000000000000000090565b60405160208101907f8cad95687ba82c2ce50e74f7b754645e5117c3a5bec8151c0726d5857980a86682527f9ac997416e8ff9d2ff6bebeb7149f65cdae5e32e2b90440b566bb3044041d36a6040820152466060820152306080820152608081526109c060a08261071a565b51902090565b9192909360a435936040840151804211610a435750602084510151808611610a315750918591610a06610a0c94610a01602088015186610c07565b610c4d565b91610c96565b51516001600160a01b0390811692608435918216820361028d57610a2f93610e63565b565b633728b83d60e01b5f5260045260245ffd5b63cd21db4f60e01b5f5260045260245ffd5b90610a5f82610817565b610a6c604051918261071a565b8281528092610a7d601f1991610817565b0190602036910137565b8051821015610a9b5760209160051b010190565b634e487b7160e01b5f52603260045260245ffd5b80516020909101905f5b818110610ac65750505090565b8251845260209384019390920191600101610ab9565b9190811015610a9b5760061b0190565b9192959093825151956040840151804211610a435750848703610ba757610b2092610a068993610a01602088015186610c07565b5f5b848110610b3157505050505050565b610b3c818351610a87565b51906020610b4b828688610adc565b0135916020810151808411610a31575082610b6c575b506001915001610b22565b516001600160a01b0316610b81828688610adc565b35926001600160a01b038416840361028d57600193610ba1928a90610e63565b5f610b61565b631fec674760e31b5f5260045ffd5b6040516020808201927f618358ac3db8dc274f0cd8829da7e234bd48cd73c4a740aede1adec9846d06a1845260018060a01b03815116604084015201516060820152606081526109c060808261071a565b90600160ff82161b9160018060a01b03165f525f60205260405f209060081c5f5260205260405f20818154188091551615610c3e57565b633ab3447f60e11b5f5260045ffd5b610c55610909565b9060405190602082019261190160f01b845260228301526042820152604281526109c060628261071a565b919082604091031261028d576020823592013590565b833b610d995760418203610d3957610cb082820182610c80565b93909260401015610a9b576020935f9360ff6040608095013560f81c5b60405194855216868401526040830152606082015282805260015afa15610d2e575f516001600160a01b0316908115610d1f576001600160a01b031603610d1057565b632057875960e21b5f5260045ffd5b638baa579f60e01b5f5260045ffd5b6040513d5f823e3d90fd5b60408203610d8a57610d4d91810190610c80565b6001600160ff1b0381169260ff91821c601b01918211610d76576020935f9360ff608094610ccd565b634e487b7160e01b5f52601160045260245ffd5b634be6321b60e01b5f5260045ffd5b928193606460209460405196879586948593630b135d3f60e11b8552600485015260406024850152816044850152848401375f828201840152601f01601f191681010301916001600160a01b03165afa908115610d2e575f91610e20575b506001600160e01b0319166374eca2c160e11b01610e1157565b632c19a72f60e21b5f5260045ffd5b90506020813d602011610e5b575b81610e3b6020938361071a565b8101031261028d57516001600160e01b03198116810361028d575f610df7565b3d9150610e2e565b905f6064926020958295604051946323b872dd60e01b86526004860152602485015260448401525af13d15601f3d1160015f511416171615610ea157565b60405162461bcd60e51b81526020600482015260146024820152731514905394d1915497d19493d357d1905253115160621b6044820152606490fdfea2646970667358221220b7d445878175f0e19ae73617a572cbb7a93a646b3cef2e6768de40755e44ce3864736f6c634300081e0033","linkReferences":{}},"methodIdentifiers":{"DOMAIN_SEPARATOR()":"3644e515","invalidateUnorderedNonces(uint256,uint256)":"3ff9dcb1","nonceBitmap(address,uint256)":"4fe02b44","permitTransferFrom(((address,uint256),uint256,uint256),(address,uint256),address,bytes)":"30f28b7a","permitTransferFrom(((address,uint256)[],uint256,uint256),(address,uint256)[],address,bytes)":"edd9444b","permitWitnessTransferFrom(((address,uint256),uint256,uint256),(address,uint256),address,bytes32,string,bytes)":"137c29fe","permitWitnessTransferFrom(((address,uint256)[],uint256,uint256),(address,uint256)[],address,bytes32,string,bytes)":"fe8ec1a7"},"id":70}