{"abi":[{"type":"constructor","inputs":[{"name":"_shop","type":"address","internalType":"address"}],"stateMutability":"nonpayable"},{"type":"function","name":"lastResult","inputs":[],"outputs":[{"name":"","type":"bool","internalType":"bool"}],"stateMutability":"view"},{"type":"function","name":"shop","inputs":[],"outputs":[{"name":"","type":"address","internalType":"contract IShop"}],"stateMutability":"view"},{"type":"function","name":"testShop","inputs":[{"name":"hookData","type":"bytes","internalType":"bytes"},{"name":"gasLimit","type":"uint256","internalType":"uint256"}],"outputs":[],"stateMutability":"nonpayable"},{"type":"function","name":"testShopSafe","inputs":[{"name":"hookData","type":"bytes","internalType":"bytes"},{"name":"gasLimit","type":"uint256","internalType":"uint256"}],"outputs":[],"stateMutability":"nonpayable"}],"bytecode":{"object":"0x608034606f57601f61035c38819003918201601f19168301916001600160401b03831184841017607357808492602094604052833981010312606f57516001600160a01b03811690819003606f575f80546001600160a01b0319169190911790556040516102d490816100888239f35b5f80fd5b634e487b7160e01b5f52604160045260245ffdfe6080806040526004361015610012575f80fd5b5f3560e01c908163074a6bf114610141575080630881fa0d1461011a578063a691ba80146100705763abcc11d814610048575f80fd5b3461006c575f36600319011261006c57602060ff5f5460a01c166040519015158152f35b5f80fd5b3461006c576100ac6020610083366101d4565b90915f60018060a01b03815416604051809781968295631132c86d60e21b845260048401610277565b0393f15f91816100e9575b506100cb57505f805460ff60a01b19169055005b5f805460ff60a01b191691151560a01b60ff60a01b16919091179055005b61010c91925060203d602011610113575b6101048183610229565b81019061025f565b90826100b7565b503d6100fa565b3461006c575f36600319011261006c575f546040516001600160a01b039091168152602090f35b3461006c5760208180805f61017a610158366101d4565b9591929060018060a01b0385541693631132c86d60e21b845260048401610277565b0393f19081156101c9575f916101aa575b505f805460ff60a01b191691151560a01b60ff60a01b16919091179055005b6101c3915060203d602011610113576101048183610229565b8161018b565b6040513d5f823e3d90fd5b90604060031983011261006c5760043567ffffffffffffffff811161006c578260238201121561006c5780600401359267ffffffffffffffff841161006c576024848301011161006c57602401919060243590565b90601f8019910116810190811067ffffffffffffffff82111761024b57604052565b634e487b7160e01b5f52604160045260245ffd5b9081602091031261006c5751801515810361006c5790565b90918060409360208452816020850152848401375f828201840152601f01601f191601019056fea2646970667358221220098c459cd291377b4f5370fdb4fc06826e0e00df827c914285b0b92bed695fca64736f6c634300081e0033","linkReferences":{}},"methodIdentifiers":{"lastResult()":"abcc11d8","shop()":"0881fa0d","testShop(bytes,uint256)":"074a6bf1","testShopSafe(bytes,uint256)":"a691ba80"},"id":74}