{"abi":[{"type":"constructor","inputs":[],"stateMutability":"payable"},{"type":"function","name":"amm","inputs":[],"outputs":[{"name":"","type":"address","internalType":"contract AMM"}],"stateMutability":"view"},{"type":"function","name":"bank","inputs":[],"outputs":[{"name":"","type":"address","internalType":"contract Bank"}],"stateMutability":"view"},{"type":"function","name":"collectPrize","inputs":[{"name":"data","type":"bytes","internalType":"bytes"}],"outputs":[],"stateMutability":"nonpayable"},{"type":"function","name":"collected","inputs":[],"outputs":[{"name":"","type":"bool","internalType":"bool"}],"stateMutability":"view"},{"type":"function","name":"htb","inputs":[],"outputs":[{"name":"","type":"address","internalType":"contract HTB"}],"stateMutability":"view"},{"type":"function","name":"isSolved","inputs":[],"outputs":[{"name":"","type":"bool","internalType":"bool"}],"stateMutability":"view"},{"type":"function","name":"permit2","inputs":[],"outputs":[{"name":"","type":"address","internalType":"contract IPermit2"}],"stateMutability":"view"},{"type":"function","name":"player","inputs":[],"outputs":[{"name":"","type":"address","internalType":"address"}],"stateMutability":"view"},{"type":"function","name":"setPlayer","inputs":[{"name":"_player","type":"address","internalType":"address"}],"outputs":[],"stateMutability":"nonpayable"},{"type":"function","name":"shop","inputs":[],"outputs":[{"name":"","type":"address","internalType":"contract Shop"}],"stateMutability":"view"},{"type":"function","name":"usdc","inputs":[],"outputs":[{"name":"","type":"address","internalType":"contract USDC"}],"stateMutability":"view"},{"type":"function","name":"weth","inputs":[],"outputs":[{"name":"","type":"address","internalType":"contract WETH"}],"stateMutability":"view"}],"bytecode":{"object":"0x6101606040819052610fcf80820191906001600160401b0383118284101761069457610f4c8239805f9203905ff08015610689576001600160a01b031660c052604051610aee8082016001600160401b03811183821017610694578291611f1b833903905ff080156106895761010052604051610cb28082016001600160401b03811183821017610694578291612a09833903905ff080156106895761012052604051610c928082016001600160401b038111838210176106945782916136bb833903905ff08015610689576101405260c051604051906001600160a01b0316610fd68083016001600160401b0381118482101761069457602092849261434d843981520301905ff08015610689576080526101205161014051604051916001600160a01b03908116916117519182850191166001600160401b038211858310176106945760409385936153238539825260208201520301905ff080156106895760a0526040516106c08082016001600160401b03811183821017610694578291616a74833903905ff080156106895760e08190526001600160a01b0316803b1561056e575f8091600460405180948193633837399f60e01b83525af1801561068957610676575b506101205181906001600160a01b0316803b156105c7578180916044604051809481936340c10f1960e01b835230600484015269d3c21bcecceda100000060248401525af1801561053057610661575b506101205160a05160405163095ea7b360e01b81526001600160a01b0391821660048201525f19602482015292602092849260449284929091165af1801561053057610644575b506101405181906001600160a01b0316803b156105c7578180916044604051809481936340c10f1960e01b835230600484015269d3c21bcecceda100000060248401525af180156105305761062f575b506101405160a05160405163095ea7b360e01b81526001600160a01b0391821660048201525f19602482015292602092849260449284929091165af1801561053057610612575b5060a051604051634e6a20ed60e11b8152691969368974c05b000000600482018190526024820152906020908290604490829086906001600160a01b03165af18015610530576105e3575b5060805160a05182916001600160a01b039081169116813b156105df578291602483926040519485938492630554751d60e51b845260048401525af18015610530576105ca575b50610100516001600160a01b0316803b156105c75781681043561a882930000091600460405180948193630d0e30db60e41b83525af18015610530576105b2575b506101005160805160405163095ea7b360e01b81526001600160a01b0391821660048201525f19602482015292602092849260449284929091165af1801561053057610585575b50608051610100516040516370a0823160e01b81523060048201529183916001600160a01b039081169116602084602481855afa93841561057a57839461053f575b50803b1561053b576040519384926319c5aef560e11b8452600484015260248301528183604482800301925af1801561053057610518575b60405161086890816106e482396080518181816102d8015261032e015260a0518181816103e0015281816104930152610748015260c0518161078c015260e05181818161062b01526107cd01526101005181818161036401526106c001526101205181818160ff0152818161027301526104c501526101405181818161017f0152818161041201526107040152f35b6105238280926106a8565b61052d5780610489565b80fd5b6040513d84823e3d90fd5b8280fd5b925092506020823d602011610572575b8161055c602093836106a8565b8101031261056e57839151925f610451565b5f80fd5b3d915061054f565b6040513d85823e3d90fd5b6105a69060203d6020116105ab575b61059e81836106a8565b8101906106cb565b61040f565b503d610594565b816105bc916106a8565b61052d57805f6103c8565b50fd5b816105d4916106a8565b61052d57805f610387565b5050fd5b6020813d60201161060a575b816105fc602093836106a8565b8101031261056e5751610340565b3d91506105ef565b61062a9060203d6020116105ab5761059e81836106a8565b6102f5565b81610639916106a8565b61052d57805f6102ae565b61065c9060203d6020116105ab5761059e81836106a8565b61025e565b8161066b916106a8565b61052d57805f610217565b61068291505f906106a8565b5f5f6101c7565b6040513d5f823e3d90fd5b634e487b7160e01b5f52604160045260245ffd5b601f909101601f19168101906001600160401b0382119082101761069457604052565b9081602091031261056e5751801515810361056e579056fe6080806040526004361015610012575f80fd5b5f905f3560e01c9081630881fa0d146107bb5750806312261ee7146107775780632a943945146107335780633e413bee146106ef5780633fc8cef3146106ab57806344cb21b41461059557806348db5f891461056a57806364d98f6e1461030757806376cdb03b146102c357806384bcefd4146102a257806398a959721461025e5763bc8d3ac4146100a2575f80fd5b34610220576020366003190112610220576004356001600160a01b0381168103610220575f5490600882901c6001600160a01b031661022457610100600160a81b031990911660089190911b610100600160a81b0316175f8190557f00000000000000000000000000000000000000000000000000000000000000006001600160a01b031690813b15610220576040516340c10f1960e01b815260089190911c6001600160a01b0316600482015260016024820152905f908290604490829084905af1801561021557610202575b50805481906001600160a01b037f000000000000000000000000000000000000000000000000000000000000000081169160081c16813b156101fe5782916044839260405194859384926340c10f1960e01b84526004840152600160248401525af180156101f3576101df5750f35b816101e9916107fc565b6101f05780f35b80fd5b6040513d84823e3d90fd5b5050fd5b61020e91505f906107fc565b5f5f610170565b6040513d5f823e3d90fd5b5f80fd5b60405162461bcd60e51b81526020600482015260126024820152711c1b185e595c88185b1c9958591e481cd95d60721b6044820152606490fd5b34610220575f366003190112610220576040517f00000000000000000000000000000000000000000000000000000000000000006001600160a01b03168152602090f35b34610220575f36600319011261022057602060ff5f54166040519015158152f35b34610220575f366003190112610220576040517f00000000000000000000000000000000000000000000000000000000000000006001600160a01b03168152602090f35b34610220575f366003190112610220576040516370a0823160e01b81526001600160a01b037f00000000000000000000000000000000000000000000000000000000000000008116600483018190529190602090829060249082907f0000000000000000000000000000000000000000000000000000000000000000165afa908115610215575f91610538575b5015908161052e575b508061047b575b806103c8575b806103bd575b6020906040519015158152f35b505f5460ff166103b0565b506040516370a0823160e01b81526001600160a01b037f000000000000000000000000000000000000000000000000000000000000000081166004830152602090829060249082907f0000000000000000000000000000000000000000000000000000000000000000165afa908115610215575f91610449575b50156103aa565b90506020813d602011610473575b81610464602093836107fc565b81010312610220575181610442565b3d9150610457565b506040516370a0823160e01b81526001600160a01b037f000000000000000000000000000000000000000000000000000000000000000081166004830152602090829060249082907f0000000000000000000000000000000000000000000000000000000000000000165afa908115610215575f916104fc575b50156103a4565b90506020813d602011610526575b81610517602093836107fc565b810103126102205751816104f5565b3d915061050a565b905031158161039d565b90506020813d602011610562575b81610553602093836107fc565b81010312610220575182610394565b3d9150610546565b34610220575f366003190112610220575f5460405160089190911c6001600160a01b03168152602090f35b346102205760203660031901126102205760043567ffffffffffffffff811161022057366023820112156102205780600401359067ffffffffffffffff82116102205736602483830101116102205760246044602092846040519586948593631132c86d60e21b8552876004860152828286015201848401375f838284010152601f801991011681010301815f60018060a01b037f0000000000000000000000000000000000000000000000000000000000000000165af1908115610215575f91610670575b5061066257005b5f805460ff19166001179055005b90506020813d6020116106a3575b8161068b602093836107fc565b8101031261022057518015158103610220578161065b565b3d915061067e565b34610220575f366003190112610220576040517f00000000000000000000000000000000000000000000000000000000000000006001600160a01b03168152602090f35b34610220575f366003190112610220576040517f00000000000000000000000000000000000000000000000000000000000000006001600160a01b03168152602090f35b34610220575f366003190112610220576040517f00000000000000000000000000000000000000000000000000000000000000006001600160a01b03168152602090f35b34610220575f366003190112610220576040517f00000000000000000000000000000000000000000000000000000000000000006001600160a01b03168152602090f35b34610220575f366003190112610220577f00000000000000000000000000000000000000000000000000000000000000006001600160a01b03168152602090f35b90601f8019910116810190811067ffffffffffffffff82111761081e57604052565b634e487b7160e01b5f52604160045260245ffdfea2646970667358221220c21adc1f68597491a77e4c9ff29e5cb5fd879d956b24da18bd89dbadd4cfcdba64736f6c634300081e003360c03460b7574660a052602081017f8cad95687ba82c2ce50e74f7b754645e5117c3a5bec8151c0726d5857980a86681527f9ac997416e8ff9d2ff6bebeb7149f65cdae5e32e2b90440b566bb3044041d36a60408301524660608301523060808301526080825260a082019180831060018060401b0384111760a35782604052519020608052610f1390816100bc823960805181610932015260a0518161090c0152f35b634e487b7160e01b5f52604160045260245ffd5b5f80fdfe60806040526004361015610011575f80fd5b5f3560e01c8063137c29fe1461055d57806330f28b7a146104935780633644e515146104715780633ff9dcb11461040c5780634fe02b44146103c5578063edd9444b146102915763fe8ec1a714610066575f80fd5b3461028d5760c036600319011261028d576004356001600160401b03811161028d5761009690369060040161082e565b6024356001600160401b03811161028d576100b59036906004016108d9565b90916100bf610751565b906084356001600160401b03811161028d576100df9036906004016107ea565b92909360a4356001600160401b03811161028d576101019036906004016107ea565b9590946101d06040519261011660a08561071a565b606b8452602083818601927f5065726d697442617463685769746e6573735472616e7366657246726f6d285484527f6f6b656e5065726d697373696f6e735b5d207065726d69747465642c6164647260408801527f657373207370656e6465722c75696e74323536206e6f6e63652c75696e74323560608801526a0d88191958591b1a5b994b60aa1b6080880152604051958694848601985180918a5e8501918483015f81523701015f815203601f19810183528261071a565b51902095835151966101e188610a55565b975f5b8181106102655750506102639760405161021481610206602082018095610aaf565b03601f19810183528261071a565b519020602086810151604080890151815193840195865290830193909352336060830152608082015260a081019190915260643560c082015261025a8160e08101610206565b51902093610aec565b005b8061027c6102766001938a51610a87565b51610bb6565b610286828d610a87565b52016101e4565b5f80fd5b3461028d57608036600319011261028d576004356001600160401b03811161028d576102c190369060040161082e565b6024356001600160401b03811161028d576102e09036906004016108d9565b6102eb929192610751565b916064356001600160401b03811161028d5761030b9036906004016107ea565b9390928251519561031b87610a55565b5f5b8881106103a35750610263975060405161033f81610206602082018095610aaf565b519020602085015160408601516040519160208301937ffcf35f5ac6a2c28868dc44c302166470266239195f02b0ee408334829333b76685526040840152336060840152608083015260a082015261025a60c082800301601f19810183528261071a565b806103b46102766001938951610a87565b6103be8285610a87565b520161031d565b3461028d57604036600319011261028d576004356001600160a01b0381169081900361028d575f525f60205260405f206024355f52602052602060405f2054604051908152f35b3461028d57604036600319011261028d57600435602435335f525f60205260405f20825f5260205260405f2081815417905560405191825260208201527f3704902f963766a4e561bbaab6e6cdc1b1dd12f6e9e99648da8843b3f46b918d60403392a2005b3461028d575f36600319011261028d57602061048b610909565b604051908152f35b3461028d5761010036600319011261028d576104ae366107b1565b604036608319011261028d576104c261073b565b9060e435916001600160401b03831161028d576104e66102639336906004016107ea565b9290916104f38251610bb6565b602083015160408401516040519160208301937f939c21a48a8dbe3a9a2404a1d46691e4d39f6583d6ec6b35714604c986d8010685526040840152336060840152608083015260a082015261055460c082800301601f19810183528261071a565b519020916109c6565b3461028d5761014036600319011261028d57610578366107b1565b604036608319011261028d5761058c61073b565b90610104356001600160401b03811161028d576105ad9036906004016107ea565b909161012435936001600160401b03851161028d576105d36102639536906004016107ea565b94909361069b604051926105e860a08561071a565b60648452602083818601927f5065726d69745769746e6573735472616e7366657246726f6d28546f6b656e5084527f65726d697373696f6e73207065726d69747465642c616464726573732073706560408801527f6e6465722c75696e74323536206e6f6e63652c75696e7432353620646561646c6060880152631a5b994b60e21b6080880152604051958694848601985180918a5e8501918483015f81523701015f815203601f19810183528261071a565b5190206106a88351610bb6565b602084810151604080870151815193840195865290830193909352336060830152608082015260a081019190915260e43560c08201526105548160e08101610206565b606081019081106001600160401b0382111761070657604052565b634e487b7160e01b5f52604160045260245ffd5b90601f801991011681019081106001600160401b0382111761070657604052565b60c435906001600160a01b038216820361028d57565b604435906001600160a01b038216820361028d57565b919082604091031261028d57604051604081018181106001600160401b038211176107065760405291829080356001600160a01b038116810361028d578252602090810135910152565b90608060031983011261028d576040516107ca816106eb565b6107d681936004610767565b815260443560208201526040606435910152565b9181601f8401121561028d578235916001600160401b03831161028d576020838186019501011161028d57565b6001600160401b0381116107065760051b60200190565b91909160608184031261028d5760405190610848826106eb565b819381356001600160401b03811161028d57820181601f8201121561028d57803561087281610817565b92610880604051948561071a565b81845260208085019260061b8401019281841161028d57602001915b8383106108bf575050505060409182918452602081013560208501520135910152565b60206040916108ce8486610767565b81520192019161089c565b9181601f8401121561028d578235916001600160401b03831161028d576020808501948460061b01011161028d57565b467f000000000000000000000000000000000000000000000000000000000000000003610954577f000000000000000000000000000000000000000000000000000000000000000090565b60405160208101907f8cad95687ba82c2ce50e74f7b754645e5117c3a5bec8151c0726d5857980a86682527f9ac997416e8ff9d2ff6bebeb7149f65cdae5e32e2b90440b566bb3044041d36a6040820152466060820152306080820152608081526109c060a08261071a565b51902090565b9192909360a435936040840151804211610a435750602084510151808611610a315750918591610a06610a0c94610a01602088015186610c07565b610c4d565b91610c96565b51516001600160a01b0390811692608435918216820361028d57610a2f93610e63565b565b633728b83d60e01b5f5260045260245ffd5b63cd21db4f60e01b5f5260045260245ffd5b90610a5f82610817565b610a6c604051918261071a565b8281528092610a7d601f1991610817565b0190602036910137565b8051821015610a9b5760209160051b010190565b634e487b7160e01b5f52603260045260245ffd5b80516020909101905f5b818110610ac65750505090565b8251845260209384019390920191600101610ab9565b9190811015610a9b5760061b0190565b9192959093825151956040840151804211610a435750848703610ba757610b2092610a068993610a01602088015186610c07565b5f5b848110610b3157505050505050565b610b3c818351610a87565b51906020610b4b828688610adc565b0135916020810151808411610a31575082610b6c575b506001915001610b22565b516001600160a01b0316610b81828688610adc565b35926001600160a01b038416840361028d57600193610ba1928a90610e63565b5f610b61565b631fec674760e31b5f5260045ffd5b6040516020808201927f618358ac3db8dc274f0cd8829da7e234bd48cd73c4a740aede1adec9846d06a1845260018060a01b03815116604084015201516060820152606081526109c060808261071a565b90600160ff82161b9160018060a01b03165f525f60205260405f209060081c5f5260205260405f20818154188091551615610c3e57565b633ab3447f60e11b5f5260045ffd5b610c55610909565b9060405190602082019261190160f01b845260228301526042820152604281526109c060628261071a565b919082604091031261028d576020823592013590565b833b610d995760418203610d3957610cb082820182610c80565b93909260401015610a9b576020935f9360ff6040608095013560f81c5b60405194855216868401526040830152606082015282805260015afa15610d2e575f516001600160a01b0316908115610d1f576001600160a01b031603610d1057565b632057875960e21b5f5260045ffd5b638baa579f60e01b5f5260045ffd5b6040513d5f823e3d90fd5b60408203610d8a57610d4d91810190610c80565b6001600160ff1b0381169260ff91821c601b01918211610d76576020935f9360ff608094610ccd565b634e487b7160e01b5f52601160045260245ffd5b634be6321b60e01b5f5260045ffd5b928193606460209460405196879586948593630b135d3f60e11b8552600485015260406024850152816044850152848401375f828201840152601f01601f191681010301916001600160a01b03165afa908115610d2e575f91610e20575b506001600160e01b0319166374eca2c160e11b01610e1157565b632c19a72f60e21b5f5260045ffd5b90506020813d602011610e5b575b81610e3b6020938361071a565b8101031261028d57516001600160e01b03198116810361028d575f610df7565b3d9150610e2e565b905f6064926020958295604051946323b872dd60e01b86526004860152602485015260448401525af13d15601f3d1160015f511416171615610ea157565b60405162461bcd60e51b81526020600482015260146024820152731514905394d1915497d19493d357d1905253115160621b6044820152606490fdfea2646970667358221220b7d445878175f0e19ae73617a572cbb7a93a646b3cef2e6768de40755e44ce3864736f6c634300081e003360806040523461031757604080519081016001600160401b0381118282101761022a576040908152600d82526c2bb930b83832b21022ba3432b960991b602083015280519081016001600160401b0381118282101761022a5760405260048152630ae8aa8960e31b602082015281516001600160401b03811161022a57600354600181811c9116801561030d575b602082101461020c57601f81116102aa575b50602092601f821160011461024957928192935f9261023e575b50508160011b915f199060031b1c1916176003555b80516001600160401b03811161022a57600454600181811c91168015610220575b602082101461020c57601f81116101a9575b50602091601f8211600114610149579181925f9261013e575b50508160011b915f199060031b1c1916176004555b6040516107d2908161031c8239f35b015190505f8061011a565b601f1982169260045f52805f20915f5b85811061019157508360019510610179575b505050811b0160045561012f565b01515f1960f88460031b161c191690555f808061016b565b91926020600181928685015181550194019201610159565b60045f527f8a35acfbc15ff81a39ae7d344fd709f28e8600b4aa8c65c6b64bfe7fe36bd19b601f830160051c81019160208410610202575b601f0160051c01905b8181106101f75750610101565b5f81556001016101ea565b90915081906101e1565b634e487b7160e01b5f52602260045260245ffd5b90607f16906100ef565b634e487b7160e01b5f52604160045260245ffd5b015190505f806100b9565b601f1982169360035f52805f20915f5b868110610292575083600195961061027a575b505050811b016003556100ce565b01515f1960f88460031b161c191690555f808061026c565b91926020600181928685015181550194019201610259565b60035f527fc2575a0e9e593c00f959f8c92f12db2869c3395a3b0502d05e2516446f71f85b601f830160051c81019160208410610303575b601f0160051c01905b8181106102f8575061009f565b5f81556001016102eb565b90915081906102e2565b90607f169061008d565b5f80fdfe6080806040526004361015610028575b5036156100205761001e61065c565b005b61001e61065c565b5f3560e01c90816306fdde031461053757508063095ea7b3146104b557806318160ddd1461049857806323b872dd146103b95780632e1a7d4d146102b2578063313ce5671461029757806370a082311461026057806395d89b4114610145578063a9059cbb14610114578063d0e30db0146101015763dd62ed3e146100ad575f61000f565b346100fd5760403660031901126100fd576100c6610630565b6100ce610646565b6001600160a01b039182165f908152600160209081526040808320949093168252928352819020549051908152f35b5f80fd5b5f3660031901126100fd5761001e61065c565b346100fd5760403660031901126100fd5761013a610130610630565b6024359033610705565b602060405160018152f35b346100fd575f3660031901126100fd576040515f6004548060011c90600181168015610256575b6020831081146102425782855290811561022657506001146101d1575b50819003601f01601f191681019067ffffffffffffffff8211818310176101bd576101b982918260405282610606565b0390f35b634e487b7160e01b5f52604160045260245ffd5b905060045f527f8a35acfbc15ff81a39ae7d344fd709f28e8600b4aa8c65c6b64bfe7fe36bd19b5f905b82821061021057506020915082010182610189565b60018160209254838588010152019101906101fb565b90506020925060ff191682840152151560051b82010182610189565b634e487b7160e01b5f52602260045260245ffd5b91607f169161016c565b346100fd5760203660031901126100fd576001600160a01b03610281610630565b165f525f602052602060405f2054604051908152f35b346100fd575f3660031901126100fd57602060405160128152f35b346100fd5760203660031901126100fd57600435335f525f6020528060405f2054106100fd5733156103a657335f525f6020528060405f205481811061038d57335f525f6020520360405f205580600254036002555f6040518281527fddf252ad1be2c89b69c2b068fc378daa952ba7f163c4a11628f55a4df523b3ef60203392a3805f8115610384575b5f80809381933390f115610379576040519081527f7fcf532c15f0a6db0bd6d0e038bea71d30d808c7d98cb3bf7268a95bf5081b6560203392a2005b6040513d5f823e3d90fd5b506108fc61033d565b63391434e360e21b5f523360045260245260445260645ffd5b634b637e8f60e11b5f525f60045260245ffd5b346100fd5760603660031901126100fd576103d2610630565b6103da610646565b6001600160a01b0382165f818152600160209081526040808320338452909152902054909260443592915f198110610418575b5061013a9350610705565b83811061047d57841561046a5733156104575761013a945f52600160205260405f2060018060a01b0333165f526020528360405f20910390558461040d565b634a1406b160e11b5f525f60045260245ffd5b63e602df0560e01b5f525f60045260245ffd5b8390637dc7a0d960e11b5f523360045260245260445260645ffd5b346100fd575f3660031901126100fd576020600254604051908152f35b346100fd5760403660031901126100fd576104ce610630565b60243590331561046a576001600160a01b031690811561045757335f52600160205260405f20825f526020528060405f20556040519081527f8c5be1e5ebec7d5bd14f71427d1e84f3dd0314c0f7b2291e5b200ac8c7c3b92560203392a3602060405160018152f35b346100fd575f3660031901126100fd575f6003548060011c906001811680156105fc575b6020831081146102425782855290811561022657506001146105a75750819003601f01601f191681019067ffffffffffffffff8211818310176101bd576101b982918260405282610606565b905060035f527fc2575a0e9e593c00f959f8c92f12db2869c3395a3b0502d05e2516446f71f85b5f905b8282106105e657506020915082010182610189565b60018160209254838588010152019101906105d1565b91607f169161055b565b602060409281835280519182918282860152018484015e5f828201840152601f01601f1916010190565b600435906001600160a01b03821682036100fd57565b602435906001600160a01b03821682036100fd57565b33156106f2576002543481018091116106de57600255335f525f60205260405f203481540190556040513481525f7fddf252ad1be2c89b69c2b068fc378daa952ba7f163c4a11628f55a4df523b3ef60203393a36040513481527fe1fffcc4923d04b559f4d29a8bfc6cda04eb5b0d3c460751c2402c5c5cc9109c60203392a2565b634e487b7160e01b5f52601160045260245ffd5b63ec442f0560e01b5f525f60045260245ffd5b6001600160a01b03169081156103a6576001600160a01b03169182156106f257815f525f60205260405f205481811061078357817fddf252ad1be2c89b69c2b068fc378daa952ba7f163c4a11628f55a4df523b3ef92602092855f525f84520360405f2055845f525f825260405f20818154019055604051908152a3565b8263391434e360e21b5f5260045260245260445260645ffdfea26469706673582212204e3e553c9fd03cb41a3094d2e34fddb8ace5ad8686fd83821ddff2dee585d90964736f6c634300081e003360a06040523461032f57604080519081016001600160401b03811182821017610242576040908152600b82526a4861636b54686542616e6b60a81b602083015280519081016001600160401b03811182821017610242576040526003815262242a2160e91b602082015281516001600160401b03811161024257600354600181811c91168015610325575b602082101461022457601f81116102c2575b50602092601f821160011461026157928192935f92610256575b50508160011b915f199060031b1c1916176003555b80516001600160401b03811161024257600454600181811c91168015610238575b602082101461022457601f81116101c1575b50602091601f8211600114610161579181925f92610156575b50508160011b915f199060031b1c1916176004555b3360805260405161097e9081610334823960805181818161025201528181610405015261048e0152f35b015190505f80610117565b601f1982169260045f52805f20915f5b8581106101a957508360019510610191575b505050811b0160045561012c565b01515f1960f88460031b161c191690555f8080610183565b91926020600181928685015181550194019201610171565b60045f527f8a35acfbc15ff81a39ae7d344fd709f28e8600b4aa8c65c6b64bfe7fe36bd19b601f830160051c8101916020841061021a575b601f0160051c01905b81811061020f57506100fe565b5f8155600101610202565b90915081906101f9565b634e487b7160e01b5f52602260045260245ffd5b90607f16906100ec565b634e487b7160e01b5f52604160045260245ffd5b015190505f806100b6565b601f1982169360035f52805f20915f5b8681106102aa5750836001959610610292575b505050811b016003556100cb565b01515f1960f88460031b161c191690555f8080610284565b91926020600181928685015181550194019201610271565b60035f527fc2575a0e9e593c00f959f8c92f12db2869c3395a3b0502d05e2516446f71f85b601f830160051c8101916020841061031b575b601f0160051c01905b818110610310575061009c565b5f8155600101610303565b90915081906102fa565b90607f169061008a565b5f80fdfe6080806040526004361015610012575f80fd5b5f3560e01c90816306fdde031461073f57508063095ea7b31461065a57806318160ddd1461063d57806323b872dd1461055e578063313ce5671461054357806340c10f191461046b57806370a08231146104345780638da5cb5b146103f057806395d89b41146102d55780639cfe42da146101d9578063a9059cbb146101a8578063dd62ed3e14610158578063e47d60601461011b5763e4997dc5146100b6575f80fd5b34610117576020366003190112610117577fd7e9ec6e6ecd65492dce6bf513cd6867560d49544421d0783ddf06e76c24470c60206001600160a01b036100fa610838565b16805f526005825260405f2060ff198154169055604051908152a1005b5f80fd5b34610117576020366003190112610117576001600160a01b0361013c610838565b165f526005602052602060ff60405f2054166040519015158152f35b3461011757604036600319011261011757610171610838565b61017961084e565b6001600160a01b039182165f908152600160209081526040808320949093168252928352819020549051908152f35b34610117576040366003190112610117576101ce6101c4610838565b602435903361089e565b602060405160018152f35b34610117576020366003190112610117576001600160a01b036101fa610838565b1680156102855760207f42e160154868087d6bfdc0ca23d96a1c1cfa32f1b72ba9ba27b69b98a0d819dc9133810361024c575b805f526005825260405f20600160ff19825416179055604051908152a1005b610280337f00000000000000000000000000000000000000000000000000000000000000006001600160a01b031614610864565b61022d565b60405162461bcd60e51b815260206004820152602260248201527f7a65726f20616464726573732063616e6e6f7420626520626c61636b6c697374604482015261195960f21b6064820152608490fd5b34610117575f366003190112610117576040515f6004548060011c906001811680156103e6575b6020831081146103d2578285529081156103b65750600114610361575b50819003601f01601f191681019067ffffffffffffffff82118183101761034d576103498291826040528261080e565b0390f35b634e487b7160e01b5f52604160045260245ffd5b905060045f527f8a35acfbc15ff81a39ae7d344fd709f28e8600b4aa8c65c6b64bfe7fe36bd19b5f905b8282106103a057506020915082010182610319565b600181602092548385880101520191019061038b565b90506020925060ff191682840152151560051b82010182610319565b634e487b7160e01b5f52602260045260245ffd5b91607f16916102fc565b34610117575f366003190112610117576040517f00000000000000000000000000000000000000000000000000000000000000006001600160a01b03168152602090f35b34610117576020366003190112610117576001600160a01b03610455610838565b165f525f602052602060405f2054604051908152f35b3461011757604036600319011261011757610484610838565b602435906104bc337f00000000000000000000000000000000000000000000000000000000000000006001600160a01b031614610864565b6001600160a01b0316908115610530576002549080820180921161051c5760207fddf252ad1be2c89b69c2b068fc378daa952ba7f163c4a11628f55a4df523b3ef915f9360025584845283825260408420818154019055604051908152a3005b634e487b7160e01b5f52601160045260245ffd5b63ec442f0560e01b5f525f60045260245ffd5b34610117575f36600319011261011757602060405160128152f35b3461011757606036600319011261011757610577610838565b61057f61084e565b6001600160a01b0382165f818152600160209081526040808320338452909152902054909260443592915f1981106105bd575b506101ce935061089e565b83811061062257841561060f5733156105fc576101ce945f52600160205260405f2060018060a01b0333165f526020528360405f2091039055846105b2565b634a1406b160e11b5f525f60045260245ffd5b63e602df0560e01b5f525f60045260245ffd5b8390637dc7a0d960e11b5f523360045260245260445260645ffd5b34610117575f366003190112610117576020600254604051908152f35b3461011757604036600319011261011757610673610838565b60243590335f52600560205260ff60405f2054166106f057331561060f576001600160a01b03169081156105fc57335f52600160205260405f20825f526020528060405f20556040519081527f8c5be1e5ebec7d5bd14f71427d1e84f3dd0314c0f7b2291e5b200ac8c7c3b92560203392a3602060405160018152f35b60405162461bcd60e51b815260206004820152602160248201527f426c61636b6c6973743a206163636f756e7420697320626c61636b6c697374656044820152601960fa1b6064820152608490fd5b34610117575f366003190112610117575f6003548060011c90600181168015610804575b6020831081146103d2578285529081156103b657506001146107af5750819003601f01601f191681019067ffffffffffffffff82118183101761034d576103498291826040528261080e565b905060035f527fc2575a0e9e593c00f959f8c92f12db2869c3395a3b0502d05e2516446f71f85b5f905b8282106107ee57506020915082010182610319565b60018160209254838588010152019101906107d9565b91607f1691610763565b602060409281835280519182918282860152018484015e5f828201840152601f01601f1916010190565b600435906001600160a01b038216820361011757565b602435906001600160a01b038216820361011757565b1561086b57565b60405162461bcd60e51b815260206004820152600b60248201526a1b9bdd08185b1b1bddd95960aa1b6044820152606490fd5b6001600160a01b0316908115610935576001600160a01b031691821561053057815f525f60205260405f205481811061091c57817fddf252ad1be2c89b69c2b068fc378daa952ba7f163c4a11628f55a4df523b3ef92602092855f525f84520360405f2055845f525f825260405f20818154019055604051908152a3565b8263391434e360e21b5f5260045260245260445260645ffd5b634b637e8f60e11b5f525f60045260245ffdfea2646970667358221220db32e0477f0a93674758686ee7c4ad0d0db0e70f8d863a8aba6e66d94dedb77f64736f6c634300081e003360a0604052346102df576100116102e3565b6100196102e3565b81516001600160401b0381116101f257600354600181811c911680156102d5575b60208210146101d457601f8111610272575b50602092601f821160011461021157928192935f92610206575b50508160011b915f199060031b1c1916176003555b80516001600160401b0381116101f257600454600181811c911680156101e8575b60208210146101d457601f8111610171575b50602091601f8211600114610111579181925f92610106575b50508160011b915f199060031b1c1916176004555b3360805260405161097e9081610314823960805181818161025201528181610405015261048e0152f35b015190505f806100c7565b601f1982169260045f52805f20915f5b85811061015957508360019510610141575b505050811b016004556100dc565b01515f1960f88460031b161c191690555f8080610133565b91926020600181928685015181550194019201610121565b60045f527f8a35acfbc15ff81a39ae7d344fd709f28e8600b4aa8c65c6b64bfe7fe36bd19b601f830160051c810191602084106101ca575b601f0160051c01905b8181106101bf57506100ae565b5f81556001016101b2565b90915081906101a9565b634e487b7160e01b5f52602260045260245ffd5b90607f169061009c565b634e487b7160e01b5f52604160045260245ffd5b015190505f80610066565b601f1982169360035f52805f20915f5b86811061025a5750836001959610610242575b505050811b0160035561007b565b01515f1960f88460031b161c191690555f8080610234565b91926020600181928685015181550194019201610221565b60035f527fc2575a0e9e593c00f959f8c92f12db2869c3395a3b0502d05e2516446f71f85b601f830160051c810191602084106102cb575b601f0160051c01905b8181106102c0575061004c565b5f81556001016102b3565b90915081906102aa565b90607f169061003a565b5f80fd5b60408051919082016001600160401b038111838210176101f25760405260048252635553444360e01b602083015256fe6080806040526004361015610012575f80fd5b5f3560e01c90816306fdde031461073f57508063095ea7b31461065a57806318160ddd1461063d57806323b872dd1461055e578063313ce5671461054357806340c10f191461046b57806370a08231146104345780638da5cb5b146103f057806395d89b41146102d55780639cfe42da146101d9578063a9059cbb146101a8578063dd62ed3e14610158578063e47d60601461011b5763e4997dc5146100b6575f80fd5b34610117576020366003190112610117577fd7e9ec6e6ecd65492dce6bf513cd6867560d49544421d0783ddf06e76c24470c60206001600160a01b036100fa610838565b16805f526005825260405f2060ff198154169055604051908152a1005b5f80fd5b34610117576020366003190112610117576001600160a01b0361013c610838565b165f526005602052602060ff60405f2054166040519015158152f35b3461011757604036600319011261011757610171610838565b61017961084e565b6001600160a01b039182165f908152600160209081526040808320949093168252928352819020549051908152f35b34610117576040366003190112610117576101ce6101c4610838565b602435903361089e565b602060405160018152f35b34610117576020366003190112610117576001600160a01b036101fa610838565b1680156102855760207f42e160154868087d6bfdc0ca23d96a1c1cfa32f1b72ba9ba27b69b98a0d819dc9133810361024c575b805f526005825260405f20600160ff19825416179055604051908152a1005b610280337f00000000000000000000000000000000000000000000000000000000000000006001600160a01b031614610864565b61022d565b60405162461bcd60e51b815260206004820152602260248201527f7a65726f20616464726573732063616e6e6f7420626520626c61636b6c697374604482015261195960f21b6064820152608490fd5b34610117575f366003190112610117576040515f6004548060011c906001811680156103e6575b6020831081146103d2578285529081156103b65750600114610361575b50819003601f01601f191681019067ffffffffffffffff82118183101761034d576103498291826040528261080e565b0390f35b634e487b7160e01b5f52604160045260245ffd5b905060045f527f8a35acfbc15ff81a39ae7d344fd709f28e8600b4aa8c65c6b64bfe7fe36bd19b5f905b8282106103a057506020915082010182610319565b600181602092548385880101520191019061038b565b90506020925060ff191682840152151560051b82010182610319565b634e487b7160e01b5f52602260045260245ffd5b91607f16916102fc565b34610117575f366003190112610117576040517f00000000000000000000000000000000000000000000000000000000000000006001600160a01b03168152602090f35b34610117576020366003190112610117576001600160a01b03610455610838565b165f525f602052602060405f2054604051908152f35b3461011757604036600319011261011757610484610838565b602435906104bc337f00000000000000000000000000000000000000000000000000000000000000006001600160a01b031614610864565b6001600160a01b0316908115610530576002549080820180921161051c5760207fddf252ad1be2c89b69c2b068fc378daa952ba7f163c4a11628f55a4df523b3ef915f9360025584845283825260408420818154019055604051908152a3005b634e487b7160e01b5f52601160045260245ffd5b63ec442f0560e01b5f525f60045260245ffd5b34610117575f36600319011261011757602060405160068152f35b3461011757606036600319011261011757610577610838565b61057f61084e565b6001600160a01b0382165f818152600160209081526040808320338452909152902054909260443592915f1981106105bd575b506101ce935061089e565b83811061062257841561060f5733156105fc576101ce945f52600160205260405f2060018060a01b0333165f526020528360405f2091039055846105b2565b634a1406b160e11b5f525f60045260245ffd5b63e602df0560e01b5f525f60045260245ffd5b8390637dc7a0d960e11b5f523360045260245260445260645ffd5b34610117575f366003190112610117576020600254604051908152f35b3461011757604036600319011261011757610673610838565b60243590335f52600560205260ff60405f2054166106f057331561060f576001600160a01b03169081156105fc57335f52600160205260405f20825f526020528060405f20556040519081527f8c5be1e5ebec7d5bd14f71427d1e84f3dd0314c0f7b2291e5b200ac8c7c3b92560203392a3602060405160018152f35b60405162461bcd60e51b815260206004820152602160248201527f426c61636b6c6973743a206163636f756e7420697320626c61636b6c697374656044820152601960fa1b6064820152608490fd5b34610117575f366003190112610117575f6003548060011c90600181168015610804575b6020831081146103d2578285529081156103b657506001146107af5750819003601f01601f191681019067ffffffffffffffff82118183101761034d576103498291826040528261080e565b905060035f527fc2575a0e9e593c00f959f8c92f12db2869c3395a3b0502d05e2516446f71f85b5f905b8282106107ee57506020915082010182610319565b60018160209254838588010152019101906107d9565b91607f1691610763565b602060409281835280519182918282860152018484015e5f828201840152601f01601f1916010190565b600435906001600160a01b038216820361011757565b602435906001600160a01b038216820361011757565b1561086b57565b60405162461bcd60e51b815260206004820152600b60248201526a1b9bdd08185b1b1bddd95960aa1b6044820152606490fd5b6001600160a01b0316908115610935576001600160a01b031691821561053057815f525f60205260405f205481811061091c57817fddf252ad1be2c89b69c2b068fc378daa952ba7f163c4a11628f55a4df523b3ef92602092855f525f84520360405f2055845f525f825260405f20818154019055604051908152a3565b8263391434e360e21b5f5260045260245260445260645ffd5b634b637e8f60e11b5f525f60045260245ffdfea264697066735822122023b002667afdc363cdc8eafeed17fe4ac01b0ae55ca40412a5f93dc8ecd5569b64736f6c634300081e003360a034607f57601f610fd638819003918201601f19168301916001600160401b03831184841017608357808492602094604052833981010312607f57516001600160a01b0381168103607f57600180546001600160a01b03191633179055608052604051610f3e90816100988239608051818181610c7f0152610dca0152f35b5f80fd5b634e487b7160e01b5f52604160045260245ffdfe608080604052600436101561001c575b50361561001a575f80fd5b005b5f905f3560e01c90816312261ee714610db857508063135cf2b314610bac578063153b0d1e14610b075780632a94394514610ae0578063338b5dea146109fd57806333f2e7f814610880578063371fd8e6146107295780635f5d06551461070b5780638a72ea6a146106825780638da5cb5b14610659578063aa8ea3a0146105ff578063c23f001f1461059b578063d898aaf21461034c578063ef706adf1461026e578063f3fef3a3146101155763f9f92be40361000f57346101125760203660031901126101125760209060ff906040906001600160a01b036100fe610df9565b168152600284522054166040519015158152f35b80fd5b50346101125760403660031901126101125761012f610df9565b60243590338352600260205260ff6040842054166102585733835260036020526040832060018060a01b0382165f5260205260405f2054828110610249578261017791610efb565b338085526003602090815260408087206001600160a01b03959095165f8181529583529481902093909355915163a9059cbb60e01b8152600481019190915260248101849052919291908160448187875af1801561023e576101e091859161020f575b50610ebf565b6040519081527f9b1bfa7fa9ee420a16e124f794c35ac9f90472acc99140eb2f6447c714cad8eb60203392a380f35b610231915060203d602011610237575b6102298183610e30565b810190610e66565b5f6101da565b503d61021f565b6040513d86823e3d90fd5b631e9acf1760e31b8452600484fd5b6001620b633d60e31b0319835233600452602483fd5b50346101125760203660031901126101125760043580825260056020526040822080546001600160a01b0316801561033d57330361032e5760058101805460ff81161561031f5760ff1916905560028101543384526003602090815260408086206001909401546001600160a01b03165f90815293909152909120805490916102f691610e0f565b90557fc28b4aed030bfacc245c0501326e1beb8c0ef0d60e4edc21067fdeb52da2a7aa8280a280f35b631388464960e01b8552600485fd5b6330cd747160e01b8352600483fd5b636df5846d60e01b8452600484fd5b503461011257608036600319011261011257610366610df9565b602435906044359060643590338552600260205260ff604086205416610585576001600160a01b0316918215801561057d575b61056e57338552600360205260408520835f526020528360405f20541061055f576004545f19811461054b57600101938460045560405160e0810181811067ffffffffffffffff82111761053757966104d66040926020998452338152886104b360058c8401938b8552878101898152606082018b815260808301918d835260a08401976001895260c08501978b89528b5260208690528b8b209460018060a01b039060018060a01b03905116166bffffffffffffffffffffffff60a01b86541617855560018060a01b03905116600185019060018060a01b03166bffffffffffffffffffffffff60a01b8254161790555160028401555160038301555160048201550192511515839060ff801983541691151516179055565b518154610100600160a81b03191660089190911b610100600160a81b0316179055565b3381526003885220845f52865260405f206104f2828254610efb565b90556040519384528584015260408301526060820152817fa5b221016d244158f755de9c5739283f750d2f7285cde6af0a9e11aafa1d602260803393a3604051908152f35b634e487b7160e01b88526041600452602488fd5b634e487b7160e01b86526011600452602486fd5b631e9acf1760e31b8552600485fd5b636448d6e960e11b8552600485fd5b508315610399565b6001620b633d60e31b0319855233600452602485fd5b5034610112576040366003190112610112576105b5610df9565b60243591906001600160a01b03831683036105fb579060409160018060a01b031681526003602052209060018060a01b03165f52602052602060405f2054604051908152f35b5080fd5b5034610112576020366003190112610112576004356001600160a01b038116908190036105fb576001546001600160a01b0316330361064a5781546001600160a01b03191617815580f35b6330cd747160e01b8252600482fd5b50346101125780600319360112610112576001546040516001600160a01b039091168152602090f35b503461011257602036600319011261011257604060e091600435815260056020522060018060a01b038154169060018060a01b036001820154169060028101546003820154906005600484015493015493604051958652602086015260408501526060840152608083015260ff8116151560a083015260018060a01b039060081c1660c0820152f35b50346101125780600319360112610112576020600454604051908152f35b503461011257602036600319011261011257600435338252600260205260ff60408320541661086a578082526005602052604082203360018060a01b03600583015460081c160361032e576107876002820154600383015490610e0f565b6001820180546040516323b872dd60e01b8152336004820152306024820152604481018490529293919290602090829060649082908a906001600160a01b03165af1801561085f576107e0918791610840575b50610e7e565b546001600160a01b03908116855260036020908152604080872093549092165f90815292905290208054909161081591610e0f565b905533907f2193d5fd48f215b92e2de47309d456b760c6387645c71ae0469b7381c0b9ff3c8380a380f35b610859915060203d602011610237576102298183610e30565b5f6107da565b6040513d88823e3d90fd5b6001620b633d60e31b0319825233600452602482fd5b503461011257602036600319011261011257600435338252600260205260ff60408320541661086a5780825260056020526040822080546001600160a01b0316156109ee576005810190815460ff81161561031f5760081c6001600160a01b03166109df576004810154804211908115916109d6575b50156109a757815433600881901b610100600160a81b03166001600160a81b031990921691909117909255600181015460029091015460405163a9059cbb60e01b8152600481019390935260248301526020908290604490829087906001600160a01b03165af1801561099c5761097391849161020f5750610ebf565b33907f4590bb700c0e55964e785d367a632878b699694db2b69ca69e270afa37b8e3728380a380f35b6040513d85823e3d90fd5b60405162461bcd60e51b81526020600482015260076024820152661156141254915160ca1b6044820152606490fd5b9050155f6108f6565b631388464960e01b8452600484fd5b636df5846d60e01b8352600483fd5b503461011257604036600319011261011257610a17610df9565b60243590338352600260205260ff604084205416610258576001600160a01b0316908115610ad1576040516323b872dd60e01b81523360048201523060248201526044810182905260208160648187875af1801561023e57610a7f9185916108405750610e7e565b338352600360205260408320825f5260205260405f20610aa0828254610e0f565b90556040519081527f5548c837ab068cf56a2c2479df0882a4922fd203edb7517321831d95078c5f6260203392a380f35b636448d6e960e11b8352600483fd5b5034610112578060031936011261011257546040516001600160a01b039091168152602090f35b503461011257604036600319011261011257610b21610df9565b6024359081151590818303610ba8576001546001600160a01b03163303610b99577f921341769c2075d1ae425396063d5ab65ff5006c4bc0bd0821e50ce51fb6012391610b8f60209260018060a01b03169485875260028452604087209060ff801983541691151516179055565b604051908152a280f35b6330cd747160e01b8452600484fd5b8380fd5b5034610d925736600319016101008112610d9257608013610d92576040366083190112610d925760c4356001600160a01b03811690819003610d925760e4359067ffffffffffffffff8211610d925736602383011215610d925781600401359167ffffffffffffffff8311610d92573660248483010111610d9257815f52600260205260ff60405f205416610da5576004356001600160a01b03811693848203610d92578415610d965760243592845f52600360205260405f20865f5260205260405f20610c7b858254610e0f565b90557f00000000000000000000000000000000000000000000000000000000000000006001600160a01b0316803b15610d92576040519363187945bd60e11b8552508660048501528460248501526044356044850152606435606485015260843560018060a01b038116809103610d92575f61012486868397602483988497608486015260a43560a48601528d60c486015261010060e48601528261010486015201848401378181018301849052601f01601f191681010301925af18015610d8757610d71575b5060207f5548c837ab068cf56a2c2479df0882a4922fd203edb7517321831d95078c5f6291604051908152a380f35b610d7e9194505f90610e30565b5f926020610d42565b6040513d5f823e3d90fd5b5f80fd5b636448d6e960e11b5f5260045ffd5b50631ff49cc360e31b5f5260045260245ffd5b34610d92575f366003190112610d92577f00000000000000000000000000000000000000000000000000000000000000006001600160a01b03168152602090f35b600435906001600160a01b0382168203610d9257565b91908201809211610e1c57565b634e487b7160e01b5f52601160045260245ffd5b90601f8019910116810190811067ffffffffffffffff821117610e5257604052565b634e487b7160e01b5f52604160045260245ffd5b90816020910312610d9257518015158103610d925790565b15610e8557565b60405162461bcd60e51b81526020600482015260126024820152711514905394d1915497d19493d357d190525360721b6044820152606490fd5b15610ec657565b60405162461bcd60e51b815260206004820152600d60248201526c1514905394d1915497d1905253609a1b6044820152606490fd5b91908203918211610e1c5756fea2646970667358221220f31f7dee497435b0bad4a01217e4db092e9761e8cd594849e10fd95e4a634ffc64736f6c634300081e003360c0346100bf57601f61175138819003918201601f19168301916001600160401b038311848410176100c35780849260409485528339810103126100bf57610052602061004b836100d7565b92016100d7565b90600160ff19600354161760035560805260a05260405161166590816100ec823960805181818161017d015281816105fc01528181610b5c0152818161119f0152611299015260a0518181816103d4015281816105120152818161066301528181610bb301526113170152f35b5f80fd5b634e487b7160e01b5f52604160045260245ffd5b51906001600160a01b03821682036100bf5756fe6080806040526004361015610012575f80fd5b5f3560e01c90816305fe138b146111ce575080630dfe16811461118a578063443cb4bc146111655780635a76f25e1461113d57806363c1dff71461109c57806366be23221461107f5780636d9a640a14610aef5780637c3970f2146108c05780639c46665c146108885780639cd441da146105ab578063aaf5eb6814610589578063b5da433014610560578063c5700a0214610541578063d21220a7146104fd578063dc20c8ff146104e05763f3809a22146100cc575f80fd5b346104dc5760403660031901126104dc5760243560043581151582036104dc57335f5260046020526001600160801b0360405f2054169182156104ae57825f52600560205260405f208281541061047f5760ff60035416600281101561046b576001036104585761014b6002670de0b6b3a76400009201545b84611466565b0490156103a95760405163a9059cbb60e01b8152336004820152602481018290526020816044815f6001600160a01b037f0000000000000000000000000000000000000000000000000000000000000000165af1801561039e576101b6915f9161036f575b5061150e565b6101de5f546001600160701b03806101d28186168285166115b1565b9260701c1691166115d1565b335f5260046020526001600160801b0360405f20541691821561033957825f52600560205260405f2054928382111580610330575b156102f657610243827f67265f88cb09c6258a94c6a5cfc46448044c8bd1788b3286dbc6c08f14f9906195611497565b61024f83600654611497565b600655806102e45750805f5260056020525f6002604082208281558260018201550155335f52600460205260405f206001600160801b031981541690555b6040519081528160208201527f2c0a11b17ed6c63e7ad7a89b7b3f17c5cd2220bf45a6254512c06a3057fa9f6460403392a2604080516001600160801b0395909516855260208501919091528301523391606090a2005b815f52600560205260405f205561028d565b60405162461bcd60e51b8152602060048201526012602482015271496e73756666696369656e7453686172657360701b6044820152606490fd5b50831515610213565b60405162461bcd60e51b815260206004820152600e60248201526d139bd45d595d5954995c5d595cdd60921b6044820152606490fd5b610391915060203d602011610397575b61038981836114d4565b8101906114f6565b5f6101b0565b503d61037f565b6040513d5f823e3d90fd5b60405163a9059cbb60e01b8152336004820152602481018290526020816044815f6001600160a01b037f0000000000000000000000000000000000000000000000000000000000000000165af1801561039e5761040d915f91610439575b50611540565b6104345f546001600160701b038061042c818616828560701c166115b1565b1691166115d1565b6101de565b610452915060203d6020116103975761038981836114d4565b5f610407565b50670de0b6b3a764000061014b81610145565b634e487b7160e01b5f52602160045260245ffd5b60405162461bcd60e51b81526020600482015260076024820152663e53484152455360c81b6044820152606490fd5b60405162461bcd60e51b81526020600482015260066024820152654e4f5f52455160d01b6044820152606490fd5b5f80fd5b346104dc575f3660031901126104dc576020600654604051908152f35b346104dc575f3660031901126104dc576040517f00000000000000000000000000000000000000000000000000000000000000006001600160a01b03168152602090f35b346104dc575f3660031901126104dc5760205f5460e01c604051908152f35b346104dc575f3660031901126104dc5760ff60035416604051600282101561046b576020918152f35b346104dc575f3660031901126104dc576020604051670de0b6b3a76400008152f35b346104dc576105b936611450565b8115158061087f575b6105cb9061157f565b6040516323b872dd60e01b8152336004820152306024820152604481018390526020816064815f6001600160a01b037f0000000000000000000000000000000000000000000000000000000000000000165af190811561039e575f91610860575b5015610835576040516323b872dd60e01b8152336004820152306024820152604481018290526020816064815f6001600160a01b037f0000000000000000000000000000000000000000000000000000000000000000165af190811561039e575f91610816575b50156107eb575f54916001600160701b038084169360701c166001549384155f146107b357670de0b6b3a76400006106cb8585611466565b046103e8810180911161079f57935b8415610767576107477fb4c03061fb5b7fed76389d5af8f2e0ddb09f8c70d1333abbb62582835e10accb936107418361073b888a9761071b8960209e611572565b600155335f5260028d5260405f206107348a8254611572565b9055611572565b92611572565b906115d1565b6040805194855260208501919091528301523391606090a2604051908152f35b60405162461bcd60e51b815260206004820152601060248201526f494e53554646494349454e545f4c495160801b6044820152606490fd5b634e487b7160e01b5f52601160045260245ffd5b6107c6816107c18786611466565b611479565b6107d4836107c18888611466565b808210156107e457505b936106da565b90506107de565b60405162461bcd60e51b815260206004820152600360248201526254463160e81b6044820152606490fd5b61082f915060203d6020116103975761038981836114d4565b83610693565b60405162461bcd60e51b815260206004820152600360248201526205446360ec1b6044820152606490fd5b610879915060203d6020116103975761038981836114d4565b8361062c565b508015156105c2565b346104dc5760203660031901126104dc576001600160a01b036108a961143a565b165f526002602052602060405f2054604051908152f35b346104dc576108ce36611450565b906108da81151561157f565b6108e681600654611572565b600655335f5260046020526001600160801b0360405f20541680155f14610a0857506001600160801b0360405160208101903360601b8252436034820152603481526109336054826114d4565b5190201690335f52600460205260405f20826001600160801b0319825416179055815f52600560205260405f2081815560ff6003541690600282101561046b57846020956109cf9260017f92f4f08fcc7fae8c57ac58c3e3e0a5881de55929ef05b7a7d57f3da47884e1b395146109e3575b50505b604080516001600160801b0387168152602081019590955284015233929081906060820190565b0390a26001600160801b0360405191168152f35b600290670de0b6b3a76400006109f98489611466565b046001820155015580876109a5565b90815f52600560205260405f20610a20828254611572565b80825560ff60035416600281101561046b57600114610a68575b50507f92f4f08fcc7fae8c57ac58c3e3e0a5881de55929ef05b7a7d57f3da47884e1b36109cf6020946109a8565b9093670de0b6b3a7640000610a7d8285611466565b0490610a8e60018701928354611572565b809255670de0b6b3a7640000820291808304670de0b6b3a7640000149015171561079f576020956002610ae57f92f4f08fcc7fae8c57ac58c3e3e0a5881de55929ef05b7a7d57f3da47884e1b3956109cf95611479565b9101559450610a3a565b346104dc5760603660031901126104dc576044356001600160a01b038116906024356004358383036104dc5780159283159384611077575b15611047575f546001600160701b03811683109081611031575b5015611006576040516370a0823160e01b81523060048201527f00000000000000000000000000000000000000000000000000000000000000006001600160a01b031690602081602481855afa90811561039e575f91610fd4575b506040516370a0823160e01b8152306004820152957f00000000000000000000000000000000000000000000000000000000000000006001600160a01b03169390602088602481885afa97881561039e575f98610f9e575b50908691610f0a575b81610e76575b50506020602492604051938480926370a0823160e01b82523060048301525afa91821561039e575f92610e3f575b506020602493604051948580926370a0823160e01b82523060048301525afa92831561039e575f93610e0b575b5080610c6a8584611572565b1115610e0357610c8390610c7e8584611572565b611497565b945b80610c908685611572565b1115610dfb57610ca490610c7e8685611572565b915b8515801581610df2575b15610dc5576103e88302908382046103e8148415171561079f576003880290888204600314171561079f57610ce491611497565b6103e88202908282046103e8148315171561079f5760038502918583046003148615171561079f57610d1f92610d1991611497565b90611466565b610d395f546001600160701b03808260701c169116611466565b90620f4240820291808304620f4240149015171561079f5710610d9c57610d5f916115d1565b6040519384526020840152604083015260608201527fd78ad95fa46c994b6551d0da85fc275fe613ce37657fb8d5e3d130840159d82260803392a3005b60405162461bcd60e51b81526020600482015260016024820152604b60f81b6044820152606490fd5b60405162461bcd60e51b81526020600482015260056024820152642727afa4a760d91b6044820152606490fd5b50831515610cb0565b505f91610ca6565b505f94610c85565b9092506020813d602011610e37575b81610e27602093836114d4565b810103126104dc57519187610c5e565b3d9150610e1a565b9291506020833d602011610e6e575b81610e5b602093836114d4565b810103126104dc57915190916020610c31565b3d9150610e4e565b60405163a9059cbb60e01b81526001600160a01b0391909116600482015260248101919091526020816044815f885af190811561039e575f91610eeb575b5015610ec1578488610c03565b60405162461bcd60e51b81526020600482015260026024820152614f3160f01b6044820152606490fd5b610f04915060203d6020116103975761038981836114d4565b88610eb4565b60405163a9059cbb60e01b81526001600160a01b0382166004820152602481018790529091506020816044815f885af190811561039e575f91610f7f575b5015610f55578590610bfd565b60405162461bcd60e51b815260206004820152600260248201526104f360f41b6044820152606490fd5b610f98915060203d6020116103975761038981836114d4565b89610f48565b919097506020823d602011610fcc575b81610fbb602093836114d4565b810103126104dc5790519686610bf4565b3d9150610fae565b90506020813d602011610ffe575b81610fef602093836114d4565b810103126104dc575187610b9c565b3d9150610fe2565b60405162461bcd60e51b815260206004820152600360248201526252455360e81b6044820152606490fd5b6001600160701b03915060701c16831086610b41565b60405162461bcd60e51b81526020600482015260086024820152674f4e455f5349444560c01b6044820152606490fd5b508215610b27565b346104dc575f3660031901126104dc576020600154604051908152f35b346104dc5760203660031901126104dc576110b561143a565b5f604080516110c3816114a4565b828152826020820152015260018060a01b03165f52600460205260806001600160801b0360405f205416805f52600560205260405f2060405190611106826114a4565b8054825260026001820154916020840192835201549160408101928352604051938452516020840152516040830152516060820152f35b346104dc575f3660031901126104dc5760206001600160701b035f5460701c16604051908152f35b346104dc575f3660031901126104dc5760206001600160701b035f5416604051908152f35b346104dc575f3660031901126104dc576040517f00000000000000000000000000000000000000000000000000000000000000006001600160a01b03168152602090f35b346104dc5760403660031901126104dc5760043590602435906001600160a01b03821682036104dc5782151580611424575b156113f957505f54916001600160701b038084169360701c16906112248482611466565b926112406112356001548096611479565b946107c18585611466565b92335f52600260205260405f20611258848254611497565b905561126683600154611497565b60015560405163a9059cbb60e01b81526001600160a01b038316600482015260248101869052602081806044810103815f7f00000000000000000000000000000000000000000000000000000000000000006001600160a01b03165af1801561039e57611312936112e187926020945f916113dc575061150e565b60405163a9059cbb60e01b81526001600160a01b039091166004820152602481019190915292839081906044820190565b03815f7f00000000000000000000000000000000000000000000000000000000000000006001600160a01b03165af1801561039e578461136687604099610c7e6107419561136c985f916113bd5750611540565b92611497565b7f743033787f4738ff4d6a7225ce2bd0977ee5f86b91a902a58f5e4d0b297b46448451806113ae33948688846040919493926060820195825260208201520152565b0390a282519182526020820152f35b6113d6915060203d6020116103975761038981836114d4565b8d610407565b6113f39150853d87116103975761038981836114d4565b8b6101b0565b62461bcd60e51b81526020600482015260066024820152654c505f4c4f5760d01b6044820152606490fd5b50335f5260026020528260405f20541015611200565b600435906001600160a01b03821682036104dc57565b60409060031901126104dc576004359060243590565b8181029291811591840414171561079f57565b8115611483570490565b634e487b7160e01b5f52601260045260245ffd5b9190820391821161079f57565b6060810190811067ffffffffffffffff8211176114c057604052565b634e487b7160e01b5f52604160045260245ffd5b90601f8019910116810190811067ffffffffffffffff8211176114c057604052565b908160209103126104dc575180151581036104dc5790565b1561151557565b606460405162461bcd60e51b81526020600482015260046024820152630545246360e41b6044820152fd5b1561154757565b606460405162461bcd60e51b81526020600482015260046024820152635452463160e01b6044820152fd5b9190820180921161079f57565b1561158657565b606460405162461bcd60e51b81526020600482015260046024820152635a45524f60e01b6044820152fd5b906001600160701b03809116911603906001600160701b03821161079f57565b7f1c411e9a96e071241c2f21f7726b17ae89e3cab4c78be50e062b03a9fffbbad1916001600160701b038060409316918263ffffffff60e01b4260e01b16918360701b9060701b161717805f55835192835260701c166020820152a156fea2646970667358221220c695a9b0acb1401150ebab1e1bf7a06b1f3abeb32e0d17875d4409674e4705af64736f6c634300081e003360808060405234602757600380546001600160a01b03191633179055610694908161002c8239f35b5f80fdfe60806040526004361015610011575f80fd5b5f3560e01c8063058daccb146100645780633837399f1461005f57806344cb21b41461005a5780639d2fc5f0146100555763ba8952ad14610050575f80fd5b6102f6565b6101b0565b61013b565b610089565b34610085575f3660031901126100855760ff60015416151560805260206080f35b5f80fd5b34610085575f366003190112610085576003546001600160a01b03163303610109576100f66100e36100f16100be5f54610352565b805f55604051928391602083016040918152681043561a882930000060208201520190565b03601f198101835282610218565b6103b4565b610107600160ff1981541617600155565b005b60405162461bcd60e51b815260206004820152600a6024820152696f776e6572206f6e6c7960b01b6044820152606490fd5b346100855760203660031901126100855760043567ffffffffffffffff811161008557366023820112156100855780600401359067ffffffffffffffff8211610085573660248383010111610085576101ac91602461019a92016105a3565b60405190151581529081906020820190565b0390f35b34610085575f3660031901126100855760205f54604051908152f35b90600182811c921680156101fa575b60208310146101e657565b634e487b7160e01b5f52602260045260245ffd5b91607f16916101db565b634e487b7160e01b5f52604160045260245ffd5b90601f8019910116810190811067ffffffffffffffff82111761023a57604052565b610204565b604051905f8260025491610252836101cc565b80835292600181169081156102d75750600114610278575b61027692500383610218565b565b5060025f90815290917f405787fa12a823e0f2b7631cc41b3ba8828b3321ca811111fa75cd3aa3bb5ace5b8183106102bb5750509060206102769282010161026a565b60209193508060019154838589010152019101909184926102a3565b6020925061027694915060ff191682840152151560051b82010161026a565b34610085575f366003190112610085576020604061031261023f565b815192839181835280519182918282860152018484015e5f828201840152601f01601f19168101030190f35b634e487b7160e01b5f52601160045260245ffd5b5f1981146103605760010190565b61033e565b601f821161037257505050565b5f5260205f20906020601f840160051c830193106103aa575b601f0160051c01905b81811061039f575050565b5f8155600101610394565b909150819061038b565b90815167ffffffffffffffff811161023a576103dc816103d56002546101cc565b6002610365565b602092601f821160011461041c5761040c929382915f92610411575b50508160011b915f199060031b1c19161790565b600255565b015190505f806103f8565b60025f52601f198216937f405787fa12a823e0f2b7631cc41b3ba8828b3321ca811111fa75cd3aa3bb5ace915f5b8681106104805750836001959610610468575b505050811b01600255565b01515f1960f88460031b161c191690555f808061045d565b9192602060018192868501518155019401920161044a565b1561049f57565b60405162461bcd60e51b815260206004820152600f60248201526e1a5b9a5d141c9a5e9948199a5c9cdd608a1b6044820152606490fd5b909392915f916002546104e8816101cc565b90600181169081156105695750600114610513575b505082906020949583528483013701015f815290565b60025f90815291969350907f405787fa12a823e0f2b7631cc41b3ba8828b3321ca811111fa75cd3aa3bb5ace5b828210610555575092950191508060206104fd565b60018160209254848b015201910190610540565b60ff1916835250801515020191508060206104fd565b9190826040910312610085576020825192015190565b5f1981019190821161036057565b906105d16054926105be6105b960015460ff1690565b610498565b6100e360405193849281602085016104d6565b602081519160405192839181840193849284010160405260045afa50018051908115918215610652575b50506106495761064561062c6100f161062461061561023f565b6020808251830101910161057f565b929092610595565b60408051602081019490945283015281606081016100e3565b5f90565b60015f5260205ff35b5f190190525f806105fb56fea26469706673582212205e48b5e40dadb31b6c083ca92e4289ab90fb6a8610a8bf0604b5f56a8246da3364736f6c634300081e0033","linkReferences":{}},"methodIdentifiers":{"amm()":"2a943945","bank()":"76cdb03b","collectPrize(bytes)":"44cb21b4","collected()":"84bcefd4","htb()":"98a95972","isSolved()":"64d98f6e","permit2()":"12261ee7","player()":"48db5f89","setPlayer(address)":"bc8d3ac4","shop()":"0881fa0d","usdc()":"3e413bee","weth()":"3fc8cef3"},"id":1}