{"abi":[{"type":"constructor","inputs":[],"stateMutability":"nonpayable"},{"type":"function","name":"DOMAIN_SEPARATOR","inputs":[],"outputs":[{"name":"","type":"bytes32","internalType":"bytes32"}],"stateMutability":"view"}],"bytecode":{"object":"0x60c03460b5574660a052602081017f8cad95687ba82c2ce50e74f7b754645e5117c3a5bec8151c0726d5857980a86681527f9ac997416e8ff9d2ff6bebeb7149f65cdae5e32e2b90440b566bb3044041d36a60408301524660608301523060808301526080825260a082019180831060018060401b0384111760a1578260405251902060805261015a90816100ba8239608051816061015260a0518160380152f35b634e487b7160e01b5f52604160045260245ffd5b5f80fdfe6080806040526004361015610012575f80fd5b5f3560e01c633644e51514610025575f80fd5b34610120575f36600319011261012057467f000000000000000000000000000000000000000000000000000000000000000003610089575060207f00000000000000000000000000000000000000000000000000000000000000005b604051908152f35b602081017f8cad95687ba82c2ce50e74f7b754645e5117c3a5bec8151c0726d5857980a86681527f9ac997416e8ff9d2ff6bebeb7149f65cdae5e32e2b90440b566bb3044041d36a60408301524660608301523060808301526080825260a082019180831067ffffffffffffffff84111761010c57602092604052519020610081565b634e487b7160e01b5f52604160045260245ffd5b5f80fdfea2646970667358221220dc2a5613684457841967355bf5543e3a162c9ce95ae8513f82f796950007112964736f6c634300081e0033","linkReferences":{}},"methodIdentifiers":{"DOMAIN_SEPARATOR()":"3644e515"},"id":69}