{"abi":[{"type":"constructor","inputs":[],"stateMutability":"nonpayable"},{"type":"function","name":"addBlacklist","inputs":[{"name":"_evilUser","type":"address","internalType":"address"}],"outputs":[],"stateMutability":"nonpayable"},{"type":"function","name":"allowance","inputs":[{"name":"owner","type":"address","internalType":"address"},{"name":"spender","type":"address","internalType":"address"}],"outputs":[{"name":"","type":"uint256","internalType":"uint256"}],"stateMutability":"view"},{"type":"function","name":"approve","inputs":[{"name":"spender","type":"address","internalType":"address"},{"name":"amount","type":"uint256","internalType":"uint256"}],"outputs":[{"name":"","type":"bool","internalType":"bool"}],"stateMutability":"nonpayable"},{"type":"function","name":"balanceOf","inputs":[{"name":"account","type":"address","internalType":"address"}],"outputs":[{"name":"","type":"uint256","internalType":"uint256"}],"stateMutability":"view"},{"type":"function","name":"decimals","inputs":[],"outputs":[{"name":"","type":"uint8","internalType":"uint8"}],"stateMutability":"view"},{"type":"function","name":"isBlackListed","inputs":[{"name":"","type":"address","internalType":"address"}],"outputs":[{"name":"","type":"bool","internalType":"bool"}],"stateMutability":"view"},{"type":"function","name":"mint","inputs":[{"name":"to","type":"address","internalType":"address"},{"name":"amount","type":"uint256","internalType":"uint256"}],"outputs":[],"stateMutability":"nonpayable"},{"type":"function","name":"name","inputs":[],"outputs":[{"name":"","type":"string","internalType":"string"}],"stateMutability":"view"},{"type":"function","name":"owner","inputs":[],"outputs":[{"name":"","type":"address","internalType":"address"}],"stateMutability":"view"},{"type":"function","name":"removeBlackList","inputs":[{"name":"_clearedUser","type":"address","internalType":"address"}],"outputs":[],"stateMutability":"nonpayable"},{"type":"function","name":"symbol","inputs":[],"outputs":[{"name":"","type":"string","internalType":"string"}],"stateMutability":"view"},{"type":"function","name":"totalSupply","inputs":[],"outputs":[{"name":"","type":"uint256","internalType":"uint256"}],"stateMutability":"view"},{"type":"function","name":"transfer","inputs":[{"name":"to","type":"address","internalType":"address"},{"name":"value","type":"uint256","internalType":"uint256"}],"outputs":[{"name":"","type":"bool","internalType":"bool"}],"stateMutability":"nonpayable"},{"type":"function","name":"transferFrom","inputs":[{"name":"from","type":"address","internalType":"address"},{"name":"to","type":"address","internalType":"address"},{"name":"value","type":"uint256","internalType":"uint256"}],"outputs":[{"name":"","type":"bool","internalType":"bool"}],"stateMutability":"nonpayable"},{"type":"event","name":"AddedBlackList","inputs":[{"name":"_user","type":"address","indexed":false,"internalType":"address"}],"anonymous":false},{"type":"event","name":"Approval","inputs":[{"name":"owner","type":"address","indexed":true,"internalType":"address"},{"name":"spender","type":"address","indexed":true,"internalType":"address"},{"name":"value","type":"uint256","indexed":false,"internalType":"uint256"}],"anonymous":false},{"type":"event","name":"RemovedBlackList","inputs":[{"name":"_user","type":"address","indexed":false,"internalType":"address"}],"anonymous":false},{"type":"event","name":"Transfer","inputs":[{"name":"from","type":"address","indexed":true,"internalType":"address"},{"name":"to","type":"address","indexed":true,"internalType":"address"},{"name":"value","type":"uint256","indexed":false,"internalType":"uint256"}],"anonymous":false},{"type":"error","name":"ERC20InsufficientAllowance","inputs":[{"name":"spender","type":"address","internalType":"address"},{"name":"allowance","type":"uint256","internalType":"uint256"},{"name":"needed","type":"uint256","internalType":"uint256"}]},{"type":"error","name":"ERC20InsufficientBalance","inputs":[{"name":"sender","type":"address","internalType":"address"},{"name":"balance","type":"uint256","internalType":"uint256"},{"name":"needed","type":"uint256","internalType":"uint256"}]},{"type":"error","name":"ERC20InvalidApprover","inputs":[{"name":"approver","type":"address","internalType":"address"}]},{"type":"error","name":"ERC20InvalidReceiver","inputs":[{"name":"receiver","type":"address","internalType":"address"}]},{"type":"error","name":"ERC20InvalidSender","inputs":[{"name":"sender","type":"address","internalType":"address"}]},{"type":"error","name":"ERC20InvalidSpender","inputs":[{"name":"spender","type":"address","internalType":"address"}]}],"bytecode":{"object":"0x60a06040523461032f57604080519081016001600160401b03811182821017610242576040908152600b82526a4861636b54686542616e6b60a81b602083015280519081016001600160401b03811182821017610242576040526003815262242a2160e91b602082015281516001600160401b03811161024257600354600181811c91168015610325575b602082101461022457601f81116102c2575b50602092601f821160011461026157928192935f92610256575b50508160011b915f199060031b1c1916176003555b80516001600160401b03811161024257600454600181811c91168015610238575b602082101461022457601f81116101c1575b50602091601f8211600114610161579181925f92610156575b50508160011b915f199060031b1c1916176004555b3360805260405161097e9081610334823960805181818161025201528181610405015261048e0152f35b015190505f80610117565b601f1982169260045f52805f20915f5b8581106101a957508360019510610191575b505050811b0160045561012c565b01515f1960f88460031b161c191690555f8080610183565b91926020600181928685015181550194019201610171565b60045f527f8a35acfbc15ff81a39ae7d344fd709f28e8600b4aa8c65c6b64bfe7fe36bd19b601f830160051c8101916020841061021a575b601f0160051c01905b81811061020f57506100fe565b5f8155600101610202565b90915081906101f9565b634e487b7160e01b5f52602260045260245ffd5b90607f16906100ec565b634e487b7160e01b5f52604160045260245ffd5b015190505f806100b6565b601f1982169360035f52805f20915f5b8681106102aa5750836001959610610292575b505050811b016003556100cb565b01515f1960f88460031b161c191690555f8080610284565b91926020600181928685015181550194019201610271565b60035f527fc2575a0e9e593c00f959f8c92f12db2869c3395a3b0502d05e2516446f71f85b601f830160051c8101916020841061031b575b601f0160051c01905b818110610310575061009c565b5f8155600101610303565b90915081906102fa565b90607f169061008a565b5f80fdfe6080806040526004361015610012575f80fd5b5f3560e01c90816306fdde031461073f57508063095ea7b31461065a57806318160ddd1461063d57806323b872dd1461055e578063313ce5671461054357806340c10f191461046b57806370a08231146104345780638da5cb5b146103f057806395d89b41146102d55780639cfe42da146101d9578063a9059cbb146101a8578063dd62ed3e14610158578063e47d60601461011b5763e4997dc5146100b6575f80fd5b34610117576020366003190112610117577fd7e9ec6e6ecd65492dce6bf513cd6867560d49544421d0783ddf06e76c24470c60206001600160a01b036100fa610838565b16805f526005825260405f2060ff198154169055604051908152a1005b5f80fd5b34610117576020366003190112610117576001600160a01b0361013c610838565b165f526005602052602060ff60405f2054166040519015158152f35b3461011757604036600319011261011757610171610838565b61017961084e565b6001600160a01b039182165f908152600160209081526040808320949093168252928352819020549051908152f35b34610117576040366003190112610117576101ce6101c4610838565b602435903361089e565b602060405160018152f35b34610117576020366003190112610117576001600160a01b036101fa610838565b1680156102855760207f42e160154868087d6bfdc0ca23d96a1c1cfa32f1b72ba9ba27b69b98a0d819dc9133810361024c575b805f526005825260405f20600160ff19825416179055604051908152a1005b610280337f00000000000000000000000000000000000000000000000000000000000000006001600160a01b031614610864565b61022d565b60405162461bcd60e51b815260206004820152602260248201527f7a65726f20616464726573732063616e6e6f7420626520626c61636b6c697374604482015261195960f21b6064820152608490fd5b34610117575f366003190112610117576040515f6004548060011c906001811680156103e6575b6020831081146103d2578285529081156103b65750600114610361575b50819003601f01601f191681019067ffffffffffffffff82118183101761034d576103498291826040528261080e565b0390f35b634e487b7160e01b5f52604160045260245ffd5b905060045f527f8a35acfbc15ff81a39ae7d344fd709f28e8600b4aa8c65c6b64bfe7fe36bd19b5f905b8282106103a057506020915082010182610319565b600181602092548385880101520191019061038b565b90506020925060ff191682840152151560051b82010182610319565b634e487b7160e01b5f52602260045260245ffd5b91607f16916102fc565b34610117575f366003190112610117576040517f00000000000000000000000000000000000000000000000000000000000000006001600160a01b03168152602090f35b34610117576020366003190112610117576001600160a01b03610455610838565b165f525f602052602060405f2054604051908152f35b3461011757604036600319011261011757610484610838565b602435906104bc337f00000000000000000000000000000000000000000000000000000000000000006001600160a01b031614610864565b6001600160a01b0316908115610530576002549080820180921161051c5760207fddf252ad1be2c89b69c2b068fc378daa952ba7f163c4a11628f55a4df523b3ef915f9360025584845283825260408420818154019055604051908152a3005b634e487b7160e01b5f52601160045260245ffd5b63ec442f0560e01b5f525f60045260245ffd5b34610117575f36600319011261011757602060405160128152f35b3461011757606036600319011261011757610577610838565b61057f61084e565b6001600160a01b0382165f818152600160209081526040808320338452909152902054909260443592915f1981106105bd575b506101ce935061089e565b83811061062257841561060f5733156105fc576101ce945f52600160205260405f2060018060a01b0333165f526020528360405f2091039055846105b2565b634a1406b160e11b5f525f60045260245ffd5b63e602df0560e01b5f525f60045260245ffd5b8390637dc7a0d960e11b5f523360045260245260445260645ffd5b34610117575f366003190112610117576020600254604051908152f35b3461011757604036600319011261011757610673610838565b60243590335f52600560205260ff60405f2054166106f057331561060f576001600160a01b03169081156105fc57335f52600160205260405f20825f526020528060405f20556040519081527f8c5be1e5ebec7d5bd14f71427d1e84f3dd0314c0f7b2291e5b200ac8c7c3b92560203392a3602060405160018152f35b60405162461bcd60e51b815260206004820152602160248201527f426c61636b6c6973743a206163636f756e7420697320626c61636b6c697374656044820152601960fa1b6064820152608490fd5b34610117575f366003190112610117575f6003548060011c90600181168015610804575b6020831081146103d2578285529081156103b657506001146107af5750819003601f01601f191681019067ffffffffffffffff82118183101761034d576103498291826040528261080e565b905060035f527fc2575a0e9e593c00f959f8c92f12db2869c3395a3b0502d05e2516446f71f85b5f905b8282106107ee57506020915082010182610319565b60018160209254838588010152019101906107d9565b91607f1691610763565b602060409281835280519182918282860152018484015e5f828201840152601f01601f1916010190565b600435906001600160a01b038216820361011757565b602435906001600160a01b038216820361011757565b1561086b57565b60405162461bcd60e51b815260206004820152600b60248201526a1b9bdd08185b1b1bddd95960aa1b6044820152606490fd5b6001600160a01b0316908115610935576001600160a01b031691821561053057815f525f60205260405f205481811061091c57817fddf252ad1be2c89b69c2b068fc378daa952ba7f163c4a11628f55a4df523b3ef92602092855f525f84520360405f2055845f525f825260405f20818154019055604051908152a3565b8263391434e360e21b5f5260045260245260445260645ffd5b634b637e8f60e11b5f525f60045260245ffdfea2646970667358221220db32e0477f0a93674758686ee7c4ad0d0db0e70f8d863a8aba6e66d94dedb77f64736f6c634300081e0033","linkReferences":{}},"methodIdentifiers":{"addBlacklist(address)":"9cfe42da","allowance(address,address)":"dd62ed3e","approve(address,uint256)":"095ea7b3","balanceOf(address)":"70a08231","decimals()":"313ce567","isBlackListed(address)":"e47d6060","mint(address,uint256)":"40c10f19","name()":"06fdde03","owner()":"8da5cb5b","removeBlackList(address)":"e4997dc5","symbol()":"95d89b41","totalSupply()":"18160ddd","transfer(address,uint256)":"a9059cbb","transferFrom(address,address,uint256)":"23b872dd"},"id":81}