{"abi":[{"type":"fallback","stateMutability":"payable"},{"type":"receive","stateMutability":"payable"},{"type":"function","name":"batchMint","inputs":[{"name":"router","type":"address","internalType":"address"},{"name":"portId","type":"uint256","internalType":"uint256"},{"name":"impactBps","type":"uint16","internalType":"uint16"},{"name":"count","type":"uint256","internalType":"uint256"}],"outputs":[],"stateMutability":"nonpayable"}],"bytecode":{"object":"0x6080604052348015600e575f5ffd5b506104958061001c5f395ff3fe608060405260043610610021575f3560e01c8063a35e208b1461002457610022565b5b005b34801561002f575f5ffd5b5061004a60048036038101906100459190610240565b61004c565b005b5f8490505f5f90505b82811015610170575f8273ffffffffffffffffffffffffffffffffffffffff1663a4dfa5ff87878560405160200161008d9190610318565b6040516020818303038152906040526040518463ffffffff1660e01b81526004016100ba939291906103cb565b6020604051808303815f875af11580156100d6573d5f5f3e3d5ffd5b505050506040513d601f19601f820116820180604052508101906100fa919061041b565b90508273ffffffffffffffffffffffffffffffffffffffff16633dc1bdb0826040518263ffffffff1660e01b81526004016101359190610446565b5f604051808303815f87803b15801561014c575f5ffd5b505af115801561015e573d5f5f3e3d5ffd5b50505050508080600101915050610055565b505050505050565b5f5ffd5b5f73ffffffffffffffffffffffffffffffffffffffff82169050919050565b5f6101a58261017c565b9050919050565b6101b58161019b565b81146101bf575f5ffd5b50565b5f813590506101d0816101ac565b92915050565b5f819050919050565b6101e8816101d6565b81146101f2575f5ffd5b50565b5f81359050610203816101df565b92915050565b5f61ffff82169050919050565b61021f81610209565b8114610229575f5ffd5b50565b5f8135905061023a81610216565b92915050565b5f5f5f5f6080858703121561025857610257610178565b5b5f610265878288016101c2565b9450506020610276878288016101f5565b93505060406102878782880161022c565b9250506060610298878288016101f5565b91505092959194509250565b5f81905092915050565b7f697066733a2f2f62617463682d000000000000000000000000000000000000005f82015250565b5f6102e2600d836102a4565b91506102ed826102ae565b600d82019050919050565b5f819050919050565b61031261030d826101d6565b6102f8565b82525050565b5f610322826102d6565b915061032e8284610301565b60208201915081905092915050565b610346816101d6565b82525050565b61035581610209565b82525050565b5f81519050919050565b5f82825260208201905092915050565b8281835e5f83830152505050565b5f601f19601f8301169050919050565b5f61039d8261035b565b6103a78185610365565b93506103b7818560208601610375565b6103c081610383565b840191505092915050565b5f6060820190506103de5f83018661033d565b6103eb602083018561034c565b81810360408301526103fd8184610393565b9050949350505050565b5f81519050610415816101df565b92915050565b5f602082840312156104305761042f610178565b5b5f61043d84828501610407565b91505092915050565b5f6020820190506104595f83018461033d565b9291505056fea2646970667358221220985f3dc4f9ef86e25f1ac674b31009ac5e2aac6585f2222fa8db61901b8e4e0d64736f6c634300081e0033","linkReferences":{}},"methodIdentifiers":{"batchMint(address,uint256,uint16,uint256)":"a35e208b"},"id":0}