{"abi":[{"type":"constructor","inputs":[{"name":"_permit2","type":"address","internalType":"contract IPermit2"}],"stateMutability":"nonpayable"},{"type":"receive","stateMutability":"payable"},{"type":"function","name":"amm","inputs":[],"outputs":[{"name":"","type":"address","internalType":"contract AMM"}],"stateMutability":"view"},{"type":"function","name":"balances","inputs":[{"name":"","type":"address","internalType":"address"},{"name":"","type":"address","internalType":"address"}],"outputs":[{"name":"","type":"uint256","internalType":"uint256"}],"stateMutability":"view"},{"type":"function","name":"blacklist","inputs":[{"name":"","type":"address","internalType":"address"}],"outputs":[{"name":"","type":"bool","internalType":"bool"}],"stateMutability":"view"},{"type":"function","name":"cancelOffer","inputs":[{"name":"offerId","type":"uint256","internalType":"uint256"}],"outputs":[],"stateMutability":"nonpayable"},{"type":"function","name":"createOffer","inputs":[{"name":"asset","type":"address","internalType":"address"},{"name":"principal","type":"uint256","internalType":"uint256"},{"name":"interest","type":"uint256","internalType":"uint256"},{"name":"expiry","type":"uint256","internalType":"uint256"}],"outputs":[{"name":"offerId","type":"uint256","internalType":"uint256"}],"stateMutability":"nonpayable"},{"type":"function","name":"depositToken","inputs":[{"name":"token","type":"address","internalType":"address"},{"name":"amount","type":"uint256","internalType":"uint256"}],"outputs":[],"stateMutability":"nonpayable"},{"type":"function","name":"depositTokenWithPermit","inputs":[{"name":"permit","type":"tuple","internalType":"struct ISignatureTransfer.PermitTransferFrom","components":[{"name":"permitted","type":"tuple","internalType":"struct ISignatureTransfer.TokenPermissions","components":[{"name":"token","type":"address","internalType":"address"},{"name":"amount","type":"uint256","internalType":"uint256"}]},{"name":"nonce","type":"uint256","internalType":"uint256"},{"name":"deadline","type":"uint256","internalType":"uint256"}]},{"name":"transferDetails","type":"tuple","internalType":"struct ISignatureTransfer.SignatureTransferDetails","components":[{"name":"to","type":"address","internalType":"address"},{"name":"requestedAmount","type":"uint256","internalType":"uint256"}]},{"name":"owner_","type":"address","internalType":"address"},{"name":"signature","type":"bytes","internalType":"bytes"}],"outputs":[],"stateMutability":"nonpayable"},{"type":"function","name":"nextOfferId","inputs":[],"outputs":[{"name":"","type":"uint256","internalType":"uint256"}],"stateMutability":"view"},{"type":"function","name":"offers","inputs":[{"name":"","type":"uint256","internalType":"uint256"}],"outputs":[{"name":"lender","type":"address","internalType":"address"},{"name":"asset","type":"address","internalType":"address"},{"name":"principal","type":"uint256","internalType":"uint256"},{"name":"interest","type":"uint256","internalType":"uint256"},{"name":"expiry","type":"uint256","internalType":"uint256"},{"name":"active","type":"bool","internalType":"bool"},{"name":"borrower","type":"address","internalType":"address"}],"stateMutability":"view"},{"type":"function","name":"owner","inputs":[],"outputs":[{"name":"","type":"address","internalType":"address"}],"stateMutability":"view"},{"type":"function","name":"permit2","inputs":[],"outputs":[{"name":"","type":"address","internalType":"contract IPermit2"}],"stateMutability":"view"},{"type":"function","name":"repay","inputs":[{"name":"offerId","type":"uint256","internalType":"uint256"}],"outputs":[],"stateMutability":"nonpayable"},{"type":"function","name":"setAMM","inputs":[{"name":"_amm","type":"address","internalType":"contract AMM"}],"outputs":[],"stateMutability":"nonpayable"},{"type":"function","name":"setBlacklist","inputs":[{"name":"user","type":"address","internalType":"address"},{"name":"status","type":"bool","internalType":"bool"}],"outputs":[],"stateMutability":"nonpayable"},{"type":"function","name":"takeOffer","inputs":[{"name":"offerId","type":"uint256","internalType":"uint256"}],"outputs":[],"stateMutability":"nonpayable"},{"type":"function","name":"withdraw","inputs":[{"name":"token","type":"address","internalType":"address"},{"name":"amount","type":"uint256","internalType":"uint256"}],"outputs":[],"stateMutability":"nonpayable"},{"type":"event","name":"BlacklistSet","inputs":[{"name":"user","type":"address","indexed":true,"internalType":"address"},{"name":"status","type":"bool","indexed":false,"internalType":"bool"}],"anonymous":false},{"type":"event","name":"Deposit","inputs":[{"name":"user","type":"address","indexed":true,"internalType":"address"},{"name":"token","type":"address","indexed":true,"internalType":"address"},{"name":"amount","type":"uint256","indexed":false,"internalType":"uint256"}],"anonymous":false},{"type":"event","name":"OfferCancelled","inputs":[{"name":"offerId","type":"uint256","indexed":true,"internalType":"uint256"}],"anonymous":false},{"type":"event","name":"OfferCreated","inputs":[{"name":"offerId","type":"uint256","indexed":true,"internalType":"uint256"},{"name":"lender","type":"address","indexed":true,"internalType":"address"},{"name":"asset","type":"address","indexed":false,"internalType":"address"},{"name":"principal","type":"uint256","indexed":false,"internalType":"uint256"},{"name":"interest","type":"uint256","indexed":false,"internalType":"uint256"},{"name":"expiry","type":"uint256","indexed":false,"internalType":"uint256"}],"anonymous":false},{"type":"event","name":"OfferTaken","inputs":[{"name":"offerId","type":"uint256","indexed":true,"internalType":"uint256"},{"name":"borrower","type":"address","indexed":true,"internalType":"address"}],"anonymous":false},{"type":"event","name":"Repaid","inputs":[{"name":"offerId","type":"uint256","indexed":true,"internalType":"uint256"},{"name":"borrower","type":"address","indexed":true,"internalType":"address"}],"anonymous":false},{"type":"event","name":"Withdraw","inputs":[{"name":"user","type":"address","indexed":true,"internalType":"address"},{"name":"token","type":"address","indexed":true,"internalType":"address"},{"name":"amount","type":"uint256","indexed":false,"internalType":"uint256"}],"anonymous":false},{"type":"error","name":"Blacklisted","inputs":[{"name":"user","type":"address","internalType":"address"}]},{"type":"error","name":"InsufficientBalance","inputs":[]},{"type":"error","name":"InvalidAsset","inputs":[]},{"type":"error","name":"NotOwner","inputs":[]},{"type":"error","name":"OfferInactive","inputs":[]},{"type":"error","name":"OfferNotFound","inputs":[]}],"bytecode":{"object":"0x60a034607f57601f610fd638819003918201601f19168301916001600160401b03831184841017608357808492602094604052833981010312607f57516001600160a01b0381168103607f57600180546001600160a01b03191633179055608052604051610f3e90816100988239608051818181610c7f0152610dca0152f35b5f80fd5b634e487b7160e01b5f52604160045260245ffdfe608080604052600436101561001c575b50361561001a575f80fd5b005b5f905f3560e01c90816312261ee714610db857508063135cf2b314610bac578063153b0d1e14610b075780632a94394514610ae0578063338b5dea146109fd57806333f2e7f814610880578063371fd8e6146107295780635f5d06551461070b5780638a72ea6a146106825780638da5cb5b14610659578063aa8ea3a0146105ff578063c23f001f1461059b578063d898aaf21461034c578063ef706adf1461026e578063f3fef3a3146101155763f9f92be40361000f57346101125760203660031901126101125760209060ff906040906001600160a01b036100fe610df9565b168152600284522054166040519015158152f35b80fd5b50346101125760403660031901126101125761012f610df9565b60243590338352600260205260ff6040842054166102585733835260036020526040832060018060a01b0382165f5260205260405f2054828110610249578261017791610efb565b338085526003602090815260408087206001600160a01b03959095165f8181529583529481902093909355915163a9059cbb60e01b8152600481019190915260248101849052919291908160448187875af1801561023e576101e091859161020f575b50610ebf565b6040519081527f9b1bfa7fa9ee420a16e124f794c35ac9f90472acc99140eb2f6447c714cad8eb60203392a380f35b610231915060203d602011610237575b6102298183610e30565b810190610e66565b5f6101da565b503d61021f565b6040513d86823e3d90fd5b631e9acf1760e31b8452600484fd5b6001620b633d60e31b0319835233600452602483fd5b50346101125760203660031901126101125760043580825260056020526040822080546001600160a01b0316801561033d57330361032e5760058101805460ff81161561031f5760ff1916905560028101543384526003602090815260408086206001909401546001600160a01b03165f90815293909152909120805490916102f691610e0f565b90557fc28b4aed030bfacc245c0501326e1beb8c0ef0d60e4edc21067fdeb52da2a7aa8280a280f35b631388464960e01b8552600485fd5b6330cd747160e01b8352600483fd5b636df5846d60e01b8452600484fd5b503461011257608036600319011261011257610366610df9565b602435906044359060643590338552600260205260ff604086205416610585576001600160a01b0316918215801561057d575b61056e57338552600360205260408520835f526020528360405f20541061055f576004545f19811461054b57600101938460045560405160e0810181811067ffffffffffffffff82111761053757966104d66040926020998452338152886104b360058c8401938b8552878101898152606082018b815260808301918d835260a08401976001895260c08501978b89528b5260208690528b8b209460018060a01b039060018060a01b03905116166bffffffffffffffffffffffff60a01b86541617855560018060a01b03905116600185019060018060a01b03166bffffffffffffffffffffffff60a01b8254161790555160028401555160038301555160048201550192511515839060ff801983541691151516179055565b518154610100600160a81b03191660089190911b610100600160a81b0316179055565b3381526003885220845f52865260405f206104f2828254610efb565b90556040519384528584015260408301526060820152817fa5b221016d244158f755de9c5739283f750d2f7285cde6af0a9e11aafa1d602260803393a3604051908152f35b634e487b7160e01b88526041600452602488fd5b634e487b7160e01b86526011600452602486fd5b631e9acf1760e31b8552600485fd5b636448d6e960e11b8552600485fd5b508315610399565b6001620b633d60e31b0319855233600452602485fd5b5034610112576040366003190112610112576105b5610df9565b60243591906001600160a01b03831683036105fb579060409160018060a01b031681526003602052209060018060a01b03165f52602052602060405f2054604051908152f35b5080fd5b5034610112576020366003190112610112576004356001600160a01b038116908190036105fb576001546001600160a01b0316330361064a5781546001600160a01b03191617815580f35b6330cd747160e01b8252600482fd5b50346101125780600319360112610112576001546040516001600160a01b039091168152602090f35b503461011257602036600319011261011257604060e091600435815260056020522060018060a01b038154169060018060a01b036001820154169060028101546003820154906005600484015493015493604051958652602086015260408501526060840152608083015260ff8116151560a083015260018060a01b039060081c1660c0820152f35b50346101125780600319360112610112576020600454604051908152f35b503461011257602036600319011261011257600435338252600260205260ff60408320541661086a578082526005602052604082203360018060a01b03600583015460081c160361032e576107876002820154600383015490610e0f565b6001820180546040516323b872dd60e01b8152336004820152306024820152604481018490529293919290602090829060649082908a906001600160a01b03165af1801561085f576107e0918791610840575b50610e7e565b546001600160a01b03908116855260036020908152604080872093549092165f90815292905290208054909161081591610e0f565b905533907f2193d5fd48f215b92e2de47309d456b760c6387645c71ae0469b7381c0b9ff3c8380a380f35b610859915060203d602011610237576102298183610e30565b5f6107da565b6040513d88823e3d90fd5b6001620b633d60e31b0319825233600452602482fd5b503461011257602036600319011261011257600435338252600260205260ff60408320541661086a5780825260056020526040822080546001600160a01b0316156109ee576005810190815460ff81161561031f5760081c6001600160a01b03166109df576004810154804211908115916109d6575b50156109a757815433600881901b610100600160a81b03166001600160a81b031990921691909117909255600181015460029091015460405163a9059cbb60e01b8152600481019390935260248301526020908290604490829087906001600160a01b03165af1801561099c5761097391849161020f5750610ebf565b33907f4590bb700c0e55964e785d367a632878b699694db2b69ca69e270afa37b8e3728380a380f35b6040513d85823e3d90fd5b60405162461bcd60e51b81526020600482015260076024820152661156141254915160ca1b6044820152606490fd5b9050155f6108f6565b631388464960e01b8452600484fd5b636df5846d60e01b8352600483fd5b503461011257604036600319011261011257610a17610df9565b60243590338352600260205260ff604084205416610258576001600160a01b0316908115610ad1576040516323b872dd60e01b81523360048201523060248201526044810182905260208160648187875af1801561023e57610a7f9185916108405750610e7e565b338352600360205260408320825f5260205260405f20610aa0828254610e0f565b90556040519081527f5548c837ab068cf56a2c2479df0882a4922fd203edb7517321831d95078c5f6260203392a380f35b636448d6e960e11b8352600483fd5b5034610112578060031936011261011257546040516001600160a01b039091168152602090f35b503461011257604036600319011261011257610b21610df9565b6024359081151590818303610ba8576001546001600160a01b03163303610b99577f921341769c2075d1ae425396063d5ab65ff5006c4bc0bd0821e50ce51fb6012391610b8f60209260018060a01b03169485875260028452604087209060ff801983541691151516179055565b604051908152a280f35b6330cd747160e01b8452600484fd5b8380fd5b5034610d925736600319016101008112610d9257608013610d92576040366083190112610d925760c4356001600160a01b03811690819003610d925760e4359067ffffffffffffffff8211610d925736602383011215610d925781600401359167ffffffffffffffff8311610d92573660248483010111610d9257815f52600260205260ff60405f205416610da5576004356001600160a01b03811693848203610d92578415610d965760243592845f52600360205260405f20865f5260205260405f20610c7b858254610e0f565b90557f00000000000000000000000000000000000000000000000000000000000000006001600160a01b0316803b15610d92576040519363187945bd60e11b8552508660048501528460248501526044356044850152606435606485015260843560018060a01b038116809103610d92575f61012486868397602483988497608486015260a43560a48601528d60c486015261010060e48601528261010486015201848401378181018301849052601f01601f191681010301925af18015610d8757610d71575b5060207f5548c837ab068cf56a2c2479df0882a4922fd203edb7517321831d95078c5f6291604051908152a380f35b610d7e9194505f90610e30565b5f926020610d42565b6040513d5f823e3d90fd5b5f80fd5b636448d6e960e11b5f5260045ffd5b50631ff49cc360e31b5f5260045260245ffd5b34610d92575f366003190112610d92577f00000000000000000000000000000000000000000000000000000000000000006001600160a01b03168152602090f35b600435906001600160a01b0382168203610d9257565b91908201809211610e1c57565b634e487b7160e01b5f52601160045260245ffd5b90601f8019910116810190811067ffffffffffffffff821117610e5257604052565b634e487b7160e01b5f52604160045260245ffd5b90816020910312610d9257518015158103610d925790565b15610e8557565b60405162461bcd60e51b81526020600482015260126024820152711514905394d1915497d19493d357d190525360721b6044820152606490fd5b15610ec657565b60405162461bcd60e51b815260206004820152600d60248201526c1514905394d1915497d1905253609a1b6044820152606490fd5b91908203918211610e1c5756fea2646970667358221220f31f7dee497435b0bad4a01217e4db092e9761e8cd594849e10fd95e4a634ffc64736f6c634300081e0033","linkReferences":{}},"methodIdentifiers":{"amm()":"2a943945","balances(address,address)":"c23f001f","blacklist(address)":"f9f92be4","cancelOffer(uint256)":"ef706adf","createOffer(address,uint256,uint256,uint256)":"d898aaf2","depositToken(address,uint256)":"338b5dea","depositTokenWithPermit(((address,uint256),uint256,uint256),(address,uint256),address,bytes)":"135cf2b3","nextOfferId()":"5f5d0655","offers(uint256)":"8a72ea6a","owner()":"8da5cb5b","permit2()":"12261ee7","repay(uint256)":"371fd8e6","setAMM(address)":"aa8ea3a0","setBlacklist(address,bool)":"153b0d1e","takeOffer(uint256)":"33f2e7f8","withdraw(address,uint256)":"f3fef3a3"},"id":6}