{"abi":[{"type":"function","name":"_PERMIT_BATCH_TRANSFER_FROM_TYPEHASH","inputs":[],"outputs":[{"name":"","type":"bytes32","internalType":"bytes32"}],"stateMutability":"view"},{"type":"function","name":"_PERMIT_BATCH_TYPEHASH","inputs":[],"outputs":[{"name":"","type":"bytes32","internalType":"bytes32"}],"stateMutability":"view"},{"type":"function","name":"_PERMIT_BATCH_WITNESS_TRANSFER_FROM_TYPEHASH_STUB","inputs":[],"outputs":[{"name":"","type":"string","internalType":"string"}],"stateMutability":"view"},{"type":"function","name":"_PERMIT_DETAILS_TYPEHASH","inputs":[],"outputs":[{"name":"","type":"bytes32","internalType":"bytes32"}],"stateMutability":"view"},{"type":"function","name":"_PERMIT_SINGLE_TYPEHASH","inputs":[],"outputs":[{"name":"","type":"bytes32","internalType":"bytes32"}],"stateMutability":"view"},{"type":"function","name":"_PERMIT_TRANSFER_FROM_TYPEHASH","inputs":[],"outputs":[{"name":"","type":"bytes32","internalType":"bytes32"}],"stateMutability":"view"},{"type":"function","name":"_PERMIT_TRANSFER_FROM_WITNESS_TYPEHASH_STUB","inputs":[],"outputs":[{"name":"","type":"string","internalType":"string"}],"stateMutability":"view"},{"type":"function","name":"_TOKEN_PERMISSIONS_TYPEHASH","inputs":[],"outputs":[{"name":"","type":"bytes32","internalType":"bytes32"}],"stateMutability":"view"},{"type":"function","name":"_TOKEN_PERMISSIONS_TYPESTRING","inputs":[],"outputs":[{"name":"","type":"string","internalType":"string"}],"stateMutability":"view"}],"bytecode":{"object":"0x60808060405234601957610430908161001e823930815050f35b5f80fdfe6080806040526004361015610012575f80fd5b5f3560e01c9081633eb8b8fd1461039d57508063415e982d146103685780636302c3cf146103335780636e4f2775146102fe57806378f16830146102c957806384b8efbb1461020d57806390bbf2f31461014a578063c0c7fa7e146100b85763c5df4f031461007f575f80fd5b5f3660031901126100b45760206040517ff3841cd1ff0085026a6327b620b67997ce40f282c88a8e905a7a5626e310f3d08152f35b5f80fd5b5f3660031901126100b457604051606081019080821067ffffffffffffffff8311176101365761013291604052602e81527f546f6b656e5065726d697373696f6e73286164647265737320746f6b656e2c7560208201526d696e7432353620616d6f756e742960901b6040820152604051918291826103d0565b0390f35b634e487b7160e01b5f52604160045260245ffd5b5f3660031901126100b45760405160a081019080821067ffffffffffffffff8311176101365761013291604052606b81527f5065726d697442617463685769746e6573735472616e7366657246726f6d285460208201527f6f6b656e5065726d697373696f6e735b5d207065726d69747465642c6164647260408201527f657373207370656e6465722c75696e74323536206e6f6e63652c75696e74323560608201526a0d88191958591b1a5b994b60aa1b6080820152604051918291826103d0565b5f3660031901126100b45760405160a081019080821067ffffffffffffffff8311176101365761013291604052606481527f5065726d69745769746e6573735472616e7366657246726f6d28546f6b656e5060208201527f65726d697373696f6e73207065726d69747465642c616464726573732073706560408201527f6e6465722c75696e74323536206e6f6e63652c75696e7432353620646561646c6060820152631a5b994b60e21b6080820152604051918291826103d0565b5f3660031901126100b45760206040517f939c21a48a8dbe3a9a2404a1d46691e4d39f6583d6ec6b35714604c986d801068152f35b5f3660031901126100b45760206040517f65626cad6cb96493bf6f5ebea28756c966f023ab9e8a83a7101849d5573b36788152f35b5f3660031901126100b45760206040517faf1b0d30d2cab0380e68f0689007e3254993c596f2fdd0aaa7f4d04f794408638152f35b5f3660031901126100b45760206040517f618358ac3db8dc274f0cd8829da7e234bd48cd73c4a740aede1adec9846d06a18152f35b5f3660031901126100b457807ffcf35f5ac6a2c28868dc44c302166470266239195f02b0ee408334829333b76660209252f35b602060409281835280519182918282860152018484015e5f828201840152601f01601f191601019056fea264697066735822122092ad593c30b53d2d8a764ea9a7e81a2993c03dff85a9f84edc9d39b079b7191264736f6c634300081e0033","linkReferences":{}},"methodIdentifiers":{"_PERMIT_BATCH_TRANSFER_FROM_TYPEHASH()":"3eb8b8fd","_PERMIT_BATCH_TYPEHASH()":"6302c3cf","_PERMIT_BATCH_WITNESS_TRANSFER_FROM_TYPEHASH_STUB()":"90bbf2f3","_PERMIT_DETAILS_TYPEHASH()":"6e4f2775","_PERMIT_SINGLE_TYPEHASH()":"c5df4f03","_PERMIT_TRANSFER_FROM_TYPEHASH()":"78f16830","_PERMIT_TRANSFER_FROM_WITNESS_TYPEHASH_STUB()":"84b8efbb","_TOKEN_PERMISSIONS_TYPEHASH()":"415e982d","_TOKEN_PERMISSIONS_TYPESTRING()":"c0c7fa7e"},"id":72}