{"abi":[{"type":"constructor","inputs":[{"name":"_token0","type":"address","internalType":"contract IERC20"},{"name":"_token1","type":"address","internalType":"contract IERC20"}],"stateMutability":"nonpayable"},{"type":"function","name":"PRECISION","inputs":[],"outputs":[{"name":"","type":"uint256","internalType":"uint256"}],"stateMutability":"view"},{"type":"function","name":"addLiquidity","inputs":[{"name":"amount0","type":"uint256","internalType":"uint256"},{"name":"amount1","type":"uint256","internalType":"uint256"}],"outputs":[{"name":"liquidity","type":"uint256","internalType":"uint256"}],"stateMutability":"nonpayable"},{"type":"function","name":"blockTimestampLast","inputs":[],"outputs":[{"name":"","type":"uint32","internalType":"uint32"}],"stateMutability":"view"},{"type":"function","name":"fulfillRedeemPartial","inputs":[{"name":"sharesToFill","type":"uint256","internalType":"uint256"},{"name":"payToken0","type":"bool","internalType":"bool"}],"outputs":[],"stateMutability":"nonpayable"},{"type":"function","name":"getRequest","inputs":[{"name":"controller","type":"address","internalType":"address"}],"outputs":[{"name":"id","type":"uint128","internalType":"uint128"},{"name":"req","type":"tuple","internalType":"struct WithdrawalRequest","components":[{"name":"shares","type":"uint256","internalType":"uint256"},{"name":"totalValue","type":"uint256","internalType":"uint256"},{"name":"sharePrice","type":"uint256","internalType":"uint256"}]}],"stateMutability":"view"},{"type":"function","name":"lpBalanceOf","inputs":[{"name":"","type":"address","internalType":"address"}],"outputs":[{"name":"","type":"uint256","internalType":"uint256"}],"stateMutability":"view"},{"type":"function","name":"lpTotalSupply","inputs":[],"outputs":[{"name":"","type":"uint256","internalType":"uint256"}],"stateMutability":"view"},{"type":"function","name":"processingMode","inputs":[],"outputs":[{"name":"","type":"uint8","internalType":"enum ProcessingMode"}],"stateMutability":"view"},{"type":"function","name":"redeemRequest","inputs":[{"name":"shares","type":"uint256","internalType":"uint256"},{"name":"sharePrice","type":"uint256","internalType":"uint256"}],"outputs":[{"name":"requestId","type":"uint128","internalType":"uint128"}],"stateMutability":"nonpayable"},{"type":"function","name":"removeLiquidity","inputs":[{"name":"liquidity","type":"uint256","internalType":"uint256"},{"name":"to","type":"address","internalType":"address"}],"outputs":[{"name":"amount0","type":"uint256","internalType":"uint256"},{"name":"amount1","type":"uint256","internalType":"uint256"}],"stateMutability":"nonpayable"},{"type":"function","name":"reserve0","inputs":[],"outputs":[{"name":"","type":"uint112","internalType":"uint112"}],"stateMutability":"view"},{"type":"function","name":"reserve1","inputs":[],"outputs":[{"name":"","type":"uint112","internalType":"uint112"}],"stateMutability":"view"},{"type":"function","name":"swap","inputs":[{"name":"amount0Out","type":"uint256","internalType":"uint256"},{"name":"amount1Out","type":"uint256","internalType":"uint256"},{"name":"to","type":"address","internalType":"address"}],"outputs":[],"stateMutability":"nonpayable"},{"type":"function","name":"token0","inputs":[],"outputs":[{"name":"","type":"address","internalType":"contract IERC20"}],"stateMutability":"view"},{"type":"function","name":"token1","inputs":[],"outputs":[{"name":"","type":"address","internalType":"contract IERC20"}],"stateMutability":"view"},{"type":"function","name":"totalQueuedShares","inputs":[],"outputs":[{"name":"","type":"uint256","internalType":"uint256"}],"stateMutability":"view"},{"type":"event","name":"Burn","inputs":[{"name":"provider","type":"address","indexed":true,"internalType":"address"},{"name":"amount0","type":"uint256","indexed":false,"internalType":"uint256"},{"name":"amount1","type":"uint256","indexed":false,"internalType":"uint256"},{"name":"liquidity","type":"uint256","indexed":false,"internalType":"uint256"}],"anonymous":false},{"type":"event","name":"Mint","inputs":[{"name":"provider","type":"address","indexed":true,"internalType":"address"},{"name":"amount0","type":"uint256","indexed":false,"internalType":"uint256"},{"name":"amount1","type":"uint256","indexed":false,"internalType":"uint256"},{"name":"liquidity","type":"uint256","indexed":false,"internalType":"uint256"}],"anonymous":false},{"type":"event","name":"RequestFulfilled","inputs":[{"name":"controller","type":"address","indexed":true,"internalType":"address"},{"name":"requestId","type":"uint128","indexed":false,"internalType":"uint128"},{"name":"shares","type":"uint256","indexed":false,"internalType":"uint256"},{"name":"assetsOut","type":"uint256","indexed":false,"internalType":"uint256"}],"anonymous":false},{"type":"event","name":"RequestQueued","inputs":[{"name":"controller","type":"address","indexed":true,"internalType":"address"},{"name":"requestId","type":"uint128","indexed":false,"internalType":"uint128"},{"name":"shares","type":"uint256","indexed":false,"internalType":"uint256"},{"name":"price","type":"uint256","indexed":false,"internalType":"uint256"}],"anonymous":false},{"type":"event","name":"RequestReduced","inputs":[{"name":"controller","type":"address","indexed":true,"internalType":"address"},{"name":"requestId","type":"uint128","indexed":false,"internalType":"uint128"},{"name":"sharesFilled","type":"uint256","indexed":false,"internalType":"uint256"}],"anonymous":false},{"type":"event","name":"Swap","inputs":[{"name":"sender","type":"address","indexed":true,"internalType":"address"},{"name":"amount0In","type":"uint256","indexed":false,"internalType":"uint256"},{"name":"amount1In","type":"uint256","indexed":false,"internalType":"uint256"},{"name":"amount0Out","type":"uint256","indexed":false,"internalType":"uint256"},{"name":"amount1Out","type":"uint256","indexed":false,"internalType":"uint256"},{"name":"to","type":"address","indexed":true,"internalType":"address"}],"anonymous":false},{"type":"event","name":"Sync","inputs":[{"name":"reserve0","type":"uint112","indexed":false,"internalType":"uint112"},{"name":"reserve1","type":"uint112","indexed":false,"internalType":"uint112"}],"anonymous":false}],"bytecode":{"object":"0x60c0346100bf57601f61175138819003918201601f19168301916001600160401b038311848410176100c35780849260409485528339810103126100bf57610052602061004b836100d7565b92016100d7565b90600160ff19600354161760035560805260a05260405161166590816100ec823960805181818161017d015281816105fc01528181610b5c0152818161119f0152611299015260a0518181816103d4015281816105120152818161066301528181610bb301526113170152f35b5f80fd5b634e487b7160e01b5f52604160045260245ffd5b51906001600160a01b03821682036100bf5756fe6080806040526004361015610012575f80fd5b5f3560e01c90816305fe138b146111ce575080630dfe16811461118a578063443cb4bc146111655780635a76f25e1461113d57806363c1dff71461109c57806366be23221461107f5780636d9a640a14610aef5780637c3970f2146108c05780639c46665c146108885780639cd441da146105ab578063aaf5eb6814610589578063b5da433014610560578063c5700a0214610541578063d21220a7146104fd578063dc20c8ff146104e05763f3809a22146100cc575f80fd5b346104dc5760403660031901126104dc5760243560043581151582036104dc57335f5260046020526001600160801b0360405f2054169182156104ae57825f52600560205260405f208281541061047f5760ff60035416600281101561046b576001036104585761014b6002670de0b6b3a76400009201545b84611466565b0490156103a95760405163a9059cbb60e01b8152336004820152602481018290526020816044815f6001600160a01b037f0000000000000000000000000000000000000000000000000000000000000000165af1801561039e576101b6915f9161036f575b5061150e565b6101de5f546001600160701b03806101d28186168285166115b1565b9260701c1691166115d1565b335f5260046020526001600160801b0360405f20541691821561033957825f52600560205260405f2054928382111580610330575b156102f657610243827f67265f88cb09c6258a94c6a5cfc46448044c8bd1788b3286dbc6c08f14f9906195611497565b61024f83600654611497565b600655806102e45750805f5260056020525f6002604082208281558260018201550155335f52600460205260405f206001600160801b031981541690555b6040519081528160208201527f2c0a11b17ed6c63e7ad7a89b7b3f17c5cd2220bf45a6254512c06a3057fa9f6460403392a2604080516001600160801b0395909516855260208501919091528301523391606090a2005b815f52600560205260405f205561028d565b60405162461bcd60e51b8152602060048201526012602482015271496e73756666696369656e7453686172657360701b6044820152606490fd5b50831515610213565b60405162461bcd60e51b815260206004820152600e60248201526d139bd45d595d5954995c5d595cdd60921b6044820152606490fd5b610391915060203d602011610397575b61038981836114d4565b8101906114f6565b5f6101b0565b503d61037f565b6040513d5f823e3d90fd5b60405163a9059cbb60e01b8152336004820152602481018290526020816044815f6001600160a01b037f0000000000000000000000000000000000000000000000000000000000000000165af1801561039e5761040d915f91610439575b50611540565b6104345f546001600160701b038061042c818616828560701c166115b1565b1691166115d1565b6101de565b610452915060203d6020116103975761038981836114d4565b5f610407565b50670de0b6b3a764000061014b81610145565b634e487b7160e01b5f52602160045260245ffd5b60405162461bcd60e51b81526020600482015260076024820152663e53484152455360c81b6044820152606490fd5b60405162461bcd60e51b81526020600482015260066024820152654e4f5f52455160d01b6044820152606490fd5b5f80fd5b346104dc575f3660031901126104dc576020600654604051908152f35b346104dc575f3660031901126104dc576040517f00000000000000000000000000000000000000000000000000000000000000006001600160a01b03168152602090f35b346104dc575f3660031901126104dc5760205f5460e01c604051908152f35b346104dc575f3660031901126104dc5760ff60035416604051600282101561046b576020918152f35b346104dc575f3660031901126104dc576020604051670de0b6b3a76400008152f35b346104dc576105b936611450565b8115158061087f575b6105cb9061157f565b6040516323b872dd60e01b8152336004820152306024820152604481018390526020816064815f6001600160a01b037f0000000000000000000000000000000000000000000000000000000000000000165af190811561039e575f91610860575b5015610835576040516323b872dd60e01b8152336004820152306024820152604481018290526020816064815f6001600160a01b037f0000000000000000000000000000000000000000000000000000000000000000165af190811561039e575f91610816575b50156107eb575f54916001600160701b038084169360701c166001549384155f146107b357670de0b6b3a76400006106cb8585611466565b046103e8810180911161079f57935b8415610767576107477fb4c03061fb5b7fed76389d5af8f2e0ddb09f8c70d1333abbb62582835e10accb936107418361073b888a9761071b8960209e611572565b600155335f5260028d5260405f206107348a8254611572565b9055611572565b92611572565b906115d1565b6040805194855260208501919091528301523391606090a2604051908152f35b60405162461bcd60e51b815260206004820152601060248201526f494e53554646494349454e545f4c495160801b6044820152606490fd5b634e487b7160e01b5f52601160045260245ffd5b6107c6816107c18786611466565b611479565b6107d4836107c18888611466565b808210156107e457505b936106da565b90506107de565b60405162461bcd60e51b815260206004820152600360248201526254463160e81b6044820152606490fd5b61082f915060203d6020116103975761038981836114d4565b83610693565b60405162461bcd60e51b815260206004820152600360248201526205446360ec1b6044820152606490fd5b610879915060203d6020116103975761038981836114d4565b8361062c565b508015156105c2565b346104dc5760203660031901126104dc576001600160a01b036108a961143a565b165f526002602052602060405f2054604051908152f35b346104dc576108ce36611450565b906108da81151561157f565b6108e681600654611572565b600655335f5260046020526001600160801b0360405f20541680155f14610a0857506001600160801b0360405160208101903360601b8252436034820152603481526109336054826114d4565b5190201690335f52600460205260405f20826001600160801b0319825416179055815f52600560205260405f2081815560ff6003541690600282101561046b57846020956109cf9260017f92f4f08fcc7fae8c57ac58c3e3e0a5881de55929ef05b7a7d57f3da47884e1b395146109e3575b50505b604080516001600160801b0387168152602081019590955284015233929081906060820190565b0390a26001600160801b0360405191168152f35b600290670de0b6b3a76400006109f98489611466565b046001820155015580876109a5565b90815f52600560205260405f20610a20828254611572565b80825560ff60035416600281101561046b57600114610a68575b50507f92f4f08fcc7fae8c57ac58c3e3e0a5881de55929ef05b7a7d57f3da47884e1b36109cf6020946109a8565b9093670de0b6b3a7640000610a7d8285611466565b0490610a8e60018701928354611572565b809255670de0b6b3a7640000820291808304670de0b6b3a7640000149015171561079f576020956002610ae57f92f4f08fcc7fae8c57ac58c3e3e0a5881de55929ef05b7a7d57f3da47884e1b3956109cf95611479565b9101559450610a3a565b346104dc5760603660031901126104dc576044356001600160a01b038116906024356004358383036104dc5780159283159384611077575b15611047575f546001600160701b03811683109081611031575b5015611006576040516370a0823160e01b81523060048201527f00000000000000000000000000000000000000000000000000000000000000006001600160a01b031690602081602481855afa90811561039e575f91610fd4575b506040516370a0823160e01b8152306004820152957f00000000000000000000000000000000000000000000000000000000000000006001600160a01b03169390602088602481885afa97881561039e575f98610f9e575b50908691610f0a575b81610e76575b50506020602492604051938480926370a0823160e01b82523060048301525afa91821561039e575f92610e3f575b506020602493604051948580926370a0823160e01b82523060048301525afa92831561039e575f93610e0b575b5080610c6a8584611572565b1115610e0357610c8390610c7e8584611572565b611497565b945b80610c908685611572565b1115610dfb57610ca490610c7e8685611572565b915b8515801581610df2575b15610dc5576103e88302908382046103e8148415171561079f576003880290888204600314171561079f57610ce491611497565b6103e88202908282046103e8148315171561079f5760038502918583046003148615171561079f57610d1f92610d1991611497565b90611466565b610d395f546001600160701b03808260701c169116611466565b90620f4240820291808304620f4240149015171561079f5710610d9c57610d5f916115d1565b6040519384526020840152604083015260608201527fd78ad95fa46c994b6551d0da85fc275fe613ce37657fb8d5e3d130840159d82260803392a3005b60405162461bcd60e51b81526020600482015260016024820152604b60f81b6044820152606490fd5b60405162461bcd60e51b81526020600482015260056024820152642727afa4a760d91b6044820152606490fd5b50831515610cb0565b505f91610ca6565b505f94610c85565b9092506020813d602011610e37575b81610e27602093836114d4565b810103126104dc57519187610c5e565b3d9150610e1a565b9291506020833d602011610e6e575b81610e5b602093836114d4565b810103126104dc57915190916020610c31565b3d9150610e4e565b60405163a9059cbb60e01b81526001600160a01b0391909116600482015260248101919091526020816044815f885af190811561039e575f91610eeb575b5015610ec1578488610c03565b60405162461bcd60e51b81526020600482015260026024820152614f3160f01b6044820152606490fd5b610f04915060203d6020116103975761038981836114d4565b88610eb4565b60405163a9059cbb60e01b81526001600160a01b0382166004820152602481018790529091506020816044815f885af190811561039e575f91610f7f575b5015610f55578590610bfd565b60405162461bcd60e51b815260206004820152600260248201526104f360f41b6044820152606490fd5b610f98915060203d6020116103975761038981836114d4565b89610f48565b919097506020823d602011610fcc575b81610fbb602093836114d4565b810103126104dc5790519686610bf4565b3d9150610fae565b90506020813d602011610ffe575b81610fef602093836114d4565b810103126104dc575187610b9c565b3d9150610fe2565b60405162461bcd60e51b815260206004820152600360248201526252455360e81b6044820152606490fd5b6001600160701b03915060701c16831086610b41565b60405162461bcd60e51b81526020600482015260086024820152674f4e455f5349444560c01b6044820152606490fd5b508215610b27565b346104dc575f3660031901126104dc576020600154604051908152f35b346104dc5760203660031901126104dc576110b561143a565b5f604080516110c3816114a4565b828152826020820152015260018060a01b03165f52600460205260806001600160801b0360405f205416805f52600560205260405f2060405190611106826114a4565b8054825260026001820154916020840192835201549160408101928352604051938452516020840152516040830152516060820152f35b346104dc575f3660031901126104dc5760206001600160701b035f5460701c16604051908152f35b346104dc575f3660031901126104dc5760206001600160701b035f5416604051908152f35b346104dc575f3660031901126104dc576040517f00000000000000000000000000000000000000000000000000000000000000006001600160a01b03168152602090f35b346104dc5760403660031901126104dc5760043590602435906001600160a01b03821682036104dc5782151580611424575b156113f957505f54916001600160701b038084169360701c16906112248482611466565b926112406112356001548096611479565b946107c18585611466565b92335f52600260205260405f20611258848254611497565b905561126683600154611497565b60015560405163a9059cbb60e01b81526001600160a01b038316600482015260248101869052602081806044810103815f7f00000000000000000000000000000000000000000000000000000000000000006001600160a01b03165af1801561039e57611312936112e187926020945f916113dc575061150e565b60405163a9059cbb60e01b81526001600160a01b039091166004820152602481019190915292839081906044820190565b03815f7f00000000000000000000000000000000000000000000000000000000000000006001600160a01b03165af1801561039e578461136687604099610c7e6107419561136c985f916113bd5750611540565b92611497565b7f743033787f4738ff4d6a7225ce2bd0977ee5f86b91a902a58f5e4d0b297b46448451806113ae33948688846040919493926060820195825260208201520152565b0390a282519182526020820152f35b6113d6915060203d6020116103975761038981836114d4565b8d610407565b6113f39150853d87116103975761038981836114d4565b8b6101b0565b62461bcd60e51b81526020600482015260066024820152654c505f4c4f5760d01b6044820152606490fd5b50335f5260026020528260405f20541015611200565b600435906001600160a01b03821682036104dc57565b60409060031901126104dc576004359060243590565b8181029291811591840414171561079f57565b8115611483570490565b634e487b7160e01b5f52601260045260245ffd5b9190820391821161079f57565b6060810190811067ffffffffffffffff8211176114c057604052565b634e487b7160e01b5f52604160045260245ffd5b90601f8019910116810190811067ffffffffffffffff8211176114c057604052565b908160209103126104dc575180151581036104dc5790565b1561151557565b606460405162461bcd60e51b81526020600482015260046024820152630545246360e41b6044820152fd5b1561154757565b606460405162461bcd60e51b81526020600482015260046024820152635452463160e01b6044820152fd5b9190820180921161079f57565b1561158657565b606460405162461bcd60e51b81526020600482015260046024820152635a45524f60e01b6044820152fd5b906001600160701b03809116911603906001600160701b03821161079f57565b7f1c411e9a96e071241c2f21f7726b17ae89e3cab4c78be50e062b03a9fffbbad1916001600160701b038060409316918263ffffffff60e01b4260e01b16918360701b9060701b161717805f55835192835260701c166020820152a156fea2646970667358221220c695a9b0acb1401150ebab1e1bf7a06b1f3abeb32e0d17875d4409674e4705af64736f6c634300081e0033","linkReferences":{}},"methodIdentifiers":{"PRECISION()":"aaf5eb68","addLiquidity(uint256,uint256)":"9cd441da","blockTimestampLast()":"c5700a02","fulfillRedeemPartial(uint256,bool)":"f3809a22","getRequest(address)":"63c1dff7","lpBalanceOf(address)":"9c46665c","lpTotalSupply()":"66be2322","processingMode()":"b5da4330","redeemRequest(uint256,uint256)":"7c3970f2","removeLiquidity(uint256,address)":"05fe138b","reserve0()":"443cb4bc","reserve1()":"5a76f25e","swap(uint256,uint256,address)":"6d9a640a","token0()":"0dfe1681","token1()":"d21220a7","totalQueuedShares()":"dc20c8ff"},"id":5}